:10000000F3C1000011C200000FC200000DC20000C9
:100010000BC2000009C2000007C2000005C20000B8
:1000200003C2000001C20000FFC10000FDC10000CA
:10003000FBC10000F9C10000F7C10000F5C10000DC
:10004000F3C100000C94D00CEFC10000EDC1000022
:10005000EBC10000BFC30000E7C10000E5C1000024
:10006000E3C100000C94091D0C94681DDDC1000063
:10007000DBC10000D9C10000D7C10000D5C100001C
:10008000D3C10000D1C10000CFC10000CDC100002C
:100090000C94B11D0C94101EC7C10000C5C1000016
:1000A000C3C10000C1C10000BFC10000BDC100004C
:1000B000BBC10000B9C10000B7C10000B5C100005C
:1000C000B3C10000B1C10000AFC100000C94591EC3
:1000D0000C94B81EA9C100000C94011F0C94601F61
:1000E000A3C10000831A831A881A881A8D1A8D1AE0
:1000F000921A921A3F1B6F1BA81BD81B111C411C84
:100100007E1CAE1C0F2EF1EBAF2EF5E1BF2EF02DB5
:100110000AEB15E188248A94982C33243394432CD9
:10012000732C52C180919B158F5F80939B15D501D5
:100130006C900FB6F8940F9280919B15815080932C
:100140009B1580919B1581111AC18091A615811173
:1001500033C015C1D8011596ED91FC911697C68153
:10016000D781CE010C960E94140B7E01B2E0EB0EFB
:10017000F11CC7010E94140B8E899091A31598174A
:1001800010F48093A31590E09C01220F331F220FDF
:10019000331F220F331F820F931FB70187529A4ECE
:1001A0000E94C20AE091FD15F091FE159E89868994
:1001B000981710F04092A015F80180818111CACFE4
:1001C0008091A115882309F4D4C08091A1158823BA
:1001D00009F4CFC080919B158111B1C08091A41505
:1001E0009091A51501969093A5158093A415C090A4
:1001F000A415D090A515C114D10489F58091C51519
:100200009091C6152091C3153091C4153093C61531
:100210002093C5159093C4158093C31580919F15A5
:100220008F5F80939F15E091C515F091C615808171
:10023000811105C090929D1580929C1510C0E0918F
:10024000C515F091C6150580F681E02D0680F78171
:10025000E02D8281938190939D1580939C158091D0
:100260009C1590919D15C816D90610F4252C50C0E8
:10027000252CE091C515F091C6158081811105C02E
:1002800090929D1580929C1543C0E091C515F09108
:10029000C6150580F681E02DC681D7818A819B81B4
:1002A000C816D90628F490939D1580939C1530C0EC
:1002B0007E01F2E0EF0EF11CC7010E94140B8C8945
:1002C0009D89892B21F0CE010C960E94140B8E89FA
:1002D0009091A315981710F48093A31590E09C01BA
:1002E000220F331F220F331F220F331F820F931F42
:1002F000B70187529A4E0E94C20AE091FD15F09113
:10030000FE159E898689981708F4B3CF272CB1CFA4
:10031000E091FD15F091FE15868990E0FC01EE0F4D
:10032000FF1FEE0FFF1FEE0FFF1F8E0F9F1FFC0121
:10033000E752FA4E8081823008F053C00AC08091A3
:10034000A1158F5F8093A1158091A015882341F09E
:1003500005C08091A015811101C021107092A015D7
:100360008091A11581508093A1158091A1158111D3
:1003700031CF8091A015813011F40E94F50B0F90C0
:100380000FBE662011F10FB6F8940F92D5011596A5
:10039000ED91FC911697C681D781CE0102960E94FD
:1003A000140B8091A61581508093A6158091B015ED
:1003B00081508093B0150F900FBE8F89988D0E9449
:1003C000AF0ACE010E94AF0A512C8091B015811165
:1003D000A9CE8091D915823008F4A1CE0E94F50BE8
:1003E0009CCE8091A015BACF11241FBECFEFD1E2D1
:1003F000DEBFCDBF00E00CBF13E0A0E0B2E0E4EC54
:10040000F6E400E00BBF02C007900D92AE36B107D4
:10041000D9F726E1AEE6B3E001C01D92A53DB207D3
:10042000E1F7D4D00C946023EBCD8F938FB78F93EB
:10043000F8948091D1168F5F8093D1168091D21657
:100440008F4F8093D2168091D3168F4F8093D316FF
:100450008091D4168F4F8093D4168F918FBF8F9138
:10046000089580E092E09F938F938FEF95E19F93A3
:100470008F930E94AB1A0F900F900F900F90FFCFA9
:100480000DE813E0C4E7D3E00F2EF5E0DF2EF02DEA
:100490006894EE24E1F80F2EF3E0FF2EF02D20E01B
:1004A0004FEF5FEF60E070E08091890390918A03E5
:1004B0000E94841045D48093760381E090E00E94EE
:1004C000201360E070E08091890390918A030E947C
:1004D000EC0E80917603833611F3843030F4823051
:1004E00008F5813009F436C0DACF843009F432C01F
:1004F0008530A9F60FB6F8940F928091760390E0BC
:10050000F801958384830F900FBE1982E88220E062
:1005100040E050E0BE0180918B0390918C030E94DB
:10052000200DBDCF0FB6F8940F928091760390E026
:10053000F801958384830F900FBE1982F88220E022
:1005400040E050E0BE0180918B0390918C030E94AB
:10055000200DA5CF0FB6F8940F928091760390E00E
:10056000F801958384830F900FBE1982D88220E012
:1005700040E050E0BE0180918B0390918C030E947B
:10058000200D8DCF85D780937303CDE8D3E00F2E58
:10059000F8EECF2EF3E0DF2EE12CF12CF02D809140
:1005A0007303882371F080E090E074D70FB6F8945D
:1005B0000F92A70196010E94F21F3F832E830F9096
:1005C0000FBE84E690E00E942013E9CFAF92BF9265
:1005D000CF92DF92EF92FF920F931F93CF93DF930F
:1005E000CDB7DEB7A2970FB6F894DEBF0FBECDBF72
:1005F00040E062E082E00E94D20C90938C038093F2
:100600008B0343E060E081E00E94D20C90938A0368
:1006100080938903009721F060E070E00E94EC0E67
:1006200043E060E081E00E94D20C909388038093C5
:100630008703009721F060E070E00E94EC0E0F2E1F
:10064000FAE0EF2EF12CF02D02E310E020E835E285
:1006500040E050E060E0CE0101960E94D61A82E2AE
:10066000FE013196AFEFB5E101900D928A95E1F769
:100670008CE067D4A12CB12CC12CD12CE12CF12C15
:1006800002E020E030E044E650E060E070E083E922
:1006900094E00E94101220E030E044E650E060E078
:1006A00070E082EC92E00E94101220E030E044E61C
:1006B00050E060E070E080E492E00E94101220E0E0
:1006C00030E044E650E060E070E082E993E00E94B0
:1006D000101220E030E044E650E060E070E081E39A
:1006E00092E00E9410120E94BE1480E090E0A29658
:1006F0000FB6F894DEBF0FBECDBFDF91CF911F9133
:100700000F91FF90EF90DF90CF90BF90AF90089542
:1007100095E895BDEEE6F0E090819260908387BD0C
:1007200016BC089543E060E081E00E94D20C9093F3
:10073000780380937703009721F060E070E00E94D7
:10074000EC0E8DE790E0E4DFC9E7D3E000E11EE0C6
:100750000F2EFCE3FF2EF02D20E04FEF5FEF60E067
:1007600070E080917703909178030E9484100FB617
:10077000F8940F92E0918503F0918603CF01B801C0
:100780000E94A91F798368839C01A9E8B8E80E94A8
:10079000162096958795929582958F7089279F70E0
:1007A00089279B838A839F010E94162096958795AF
:1007B000929582958F7089279F708927F89E900166
:1007C000F99E300D1124E21BF30BFD83EC830F9097
:1007D0000FBEC2CF1F920F920FB60F9211240BB60D
:1007E0000F922F933F934F935F936F937F938F93CA
:1007F0009F93AF93BF93EF93FF9380916F0390917B
:10080000700308969093700380936F0316BC8091D9
:100810006F0390917003883E9340A9F48091850303
:1008200090918603019690938603809385036EE6EC
:1008300073E080917703909178030E945910109291
:10084000700310926F03FF91EF91BF91AF919F9151
:100850008F917F916F915F914F913F912F910F9069
:100860000BBE0F900FBE0F901F9018950F931F9304
:10087000CF93DF93CDB7DEB728970FB6F894DEBFDE
:100880000FBECDBF60E080E02CD3809179039091C2
:100890007A030A9714F480E341D309E713E04AE0AE
:1008A000BE016F5F7F4FF801808191810E943520EA
:1008B000CE01019637D38AE331D3F8018281938147
:1008C0000A9714F480E32AD309E713E04AE0BE0153
:1008D0006F5F7F4FF801828193810E943520CE01A6
:1008E000019620D38AE31AD3F801848195810A976F
:1008F00014F480E313D34AE0BE016F5F7F4F809111
:100900007D0390917E030E943520CE0101960AD38B
:1009100028960FB6F894DEBF0FBECDBFDF91CF9102
:100920001F910F910895CF93DF93CDB7DEB728972E
:100930000FB6F894DEBF0FBECDBF0F2EFEE6AF2E72
:10094000F2E0BF2EF02D00E010E00F2EFCE29F2E13
:10095000F02D0F2EF1E5CF2EF2E0DF2EF02D0F2E31
:10096000F6E1EF2EF2E0FF2EF02D0F2EF4E36F2EC6
:10097000F2E07F2EF02D20E04FEF5FEF61E773E0B4
:1009800080918B0390918C030E948410809171035D
:10099000833009F403C118F4823041F090C18430EF
:1009A00009F480C0853009F475C189C120E04FEF9A
:1009B0005FEF60E070E080918703909188030E9470
:1009C000841080917203811101C0850160E080E094
:1009D00088D2D8018C91882309F45AC0F80180810B
:1009E000853209F042C08181893629F05801FFEF34
:1009F000AF1ABF0A2BC0828190E0C097FC01EE0FB6
:100A0000FF1F880F991F880F991F880F991FE80FE4
:100A1000F91F5801B3E0AB0EB11CD80113968C91AD
:100A20000FB6F8940F92E80FF11DEE0FFF1FE35D74
:100A3000FC4F4AE0BE016F5F7F4F808191810E9431
:100A400035200F900FBE8B818C839B8289818823F8
:100A5000C1F08E010F5F1F4FF80181918F015ED2AF
:100A6000D8018C918111F8CF0CC0F80180818A30B7
:100A700029F461E080E035D2580103C080814ED274
:100A8000580185010F5F1F4FF50181818111A6CFAC
:100A900060E070E080918703909188030E94EC0EE3
:100AA000530169CF20E04FEF5FEF60E070E080918D
:100AB0008703909188030E948410809172038111B2
:100AC00001C0850160E080E00CD2D8018C918823C0
:100AD00009F45AC0F8018081853209F042C0818151
:100AE000893629F05801FFEFAF1ABF0A2BC0828167
:100AF00090E0C097FC01EE0FFF1F880F991F880F31
:100B0000991F880F991FE80FF91F5801B3E0AB0E2A
:100B1000B11CD80113968C910FB6F8940F92E80F80
:100B2000F11DEE0FFF1FE35DFC4F4AE0BE016F5F5A
:100B30007F4F808191810E9435200F900FBE8B8165
:100B40008C839B8289818823C1F08E010F5F1F4FA8
:100B5000F80181918F01E2D1D8018C918111F8CFF8
:100B60000CC0F80180818A3029F461E080E0B9D1BD
:100B7000580103C08081D2D1580185010F5F1F4FFA
:100B8000F50181818111A6CF60E070E0809187033B
:100B9000909188030E94EC0E5701EDCE20E04FEFBC
:100BA0005FEF60E070E080918703909188030E947E
:100BB000841080917203811101C0850160E080E0A2
:100BC00090D1D8018C91882309F45AC0F801808112
:100BD000853209F042C08181893629F05801FFEF42
:100BE000AF1ABF0A2BC0828190E0C097FC01EE0FC4
:100BF000FF1F880F991F880F991F880F991FE80FF3
:100C0000F91F5801B3E0AB0EB11CD80113968C91BB
:100C10000FB6F8940F92E80FF11DEE0FFF1FE35D82
:100C2000FC4F4AE0BE016F5F7F4F808191810E943F
:100C300035200F900FBE8B818C839B828981882306
:100C4000C1F08E010F5F1F4FF80181918F0166D1B6
:100C5000D8018C918111F8CF0CC0F80180818A30C5
:100C600029F461E080E03DD1580103C0808156D174
:100C7000580185010F5F1F4FF50181818111A6CFBA
:100C800060E070E080918703909188030E94EC0EF1
:100C9000560171CE20E04FEF5FEF60E070E0809191
:100CA0008703909188030E948410E0DD60E070E08B
:100CB00080918703909188030E94EC0E5CCE85E4BE
:100CC0002DD159CECF93DF93EAE7F0E080818068A1
:100CD0008083808180648083808184FFFDCF48E0B1
:100CE00060E070E0EAE7F0E0C8E7D0E0A9E7B0E054
:100CF000908190649083908194FFFDCF88812C91A6
:100D000030E0322F2227280F311D620F731F415010
:100D100079F7EAE7F0E080818F778083CB019595C2
:100D200087959595879595958795DF91CF910895AE
:100D3000806480937C0087E880937A00C3CF089515
:100D40000F931F93CF93DF9380E0F2DFBBDF8538F3
:100D500093400CF5CAE0D0E000E010E0B3DF080FEC
:100D6000191F2197D9F7C8016AE070E00E94BD1FE2
:100D70006233710594F0663E71058CF0623C81E04F
:100D800078077CF06A3822E072076CF064387340B0
:100D900064F083E60BC083E609C081E007C082E00F
:100DA00005C083E003C084E001C085E0DF91CF91FE
:100DB0001F910F910895662331F0E2E0F1E09081F8
:100DC0009062908305C0E2E0F1E090819F7D908386
:100DD00041113DC0882334F4E2E0F1E0908190615C
:100DE000908305C0E2E0F1E090819F7E908386FFD2
:100DF00006C0E2E0F1E090819860908305C0E2E0F7
:100E0000F1E09081977F908385FF02C0739A01C0C3
:100E1000739884FF02C0A59A01C0A598E2E0F1E0B2
:100E200090819F7B908395E09A95F1F700009081E7
:100E30009064908395E09A95F1F7000090819F7BF4
:100E40009083EFE9FFE03197F1F700C0000083FFE6
:100E500006C0E2E0F1E090819061908305C0E2E09D
:100E6000F1E090819F7E908382FF06C0E2E0F1E096
:100E700090819860908305C0E2E0F1E09081977FD7
:100E8000908381FF02C0739A01C0739880FF02C0F3
:100E9000A59A01C0A598E2E0F1E080818F7B808374
:100EA00085E08A95F1F7000080818064808395E079
:100EB0009A95F1F7000080818F7B80838FE99FE016
:100EC0000197F1F700C00000A59A739A80818860AD
:100ED0008083808180618083089540E060E06BCFF3
:100EE0000895CF93DF93D82FC62F82E0F6DFC1306D
:100EF00009F4D85DDD2331F0C0E084E1EEDFCF5F9F
:100F0000DC13FBCFDF91CF91089581E0E6DF8FED19
:100F10009EE20197F1F700C00000089540E061E013
:100F20004ACF0895CF93DF93EC012196FC01808195
:100F3000882321F0F3DF89918111FCCFDF91CF91DC
:100F40000895CF93C82FE1E0F1E080818062808333
:100F50008081806480839D9A6B9A80818860808381
:100F60008081806180832FEF8DEE92E02150804060
:100F70009040E1F700C00000E2E0F1E080818F7D69
:100F8000808380818F7B808341E060E083E013DF9A
:100F90008FE19EE40197F1F700C0000041E060E0BE
:100FA00083E009DF8FE99FE00197F1F700C00000BF
:100FB00041E060E083E0FFDE8FE99FE00197F1F719
:100FC00000C0000041E060E082E0F5DE40E060E06B
:100FD00088E2F1DE9ADF86E080DF8C2F7EDFCF9122
:100FE000089561157105A9F0FC01680F791F80E073
:100FF00048E1219198E0382F322730FF0CC0842738
:101000008695806826959150B1F7E617F70789F71E
:10101000089580E008958695F5CFEF92FF920F93A3
:101020001F93CF93DF937B01042FBC018EEBDDD1A7
:10103000002361F0E701015010E00F5F1F4F0E0D1C
:101040001F1D7CD18993C017D107D9F769E070E0E3
:10105000C701C7DF811183E0DF91CF911F910F910D
:10106000FF90EF9008950F931F93CF93DF93EC01C0
:101070008B01B801888165D1888381508D3F50F400
:10108000F8018081883241F0803141F0823289F765
:1010900080E005C081E003C080E001C080E0DF9116
:1010A000CF911F910F9108951F93CF93DF93182F26
:1010B000EB01CFD0A7D0882361F0113029F0BE0119
:1010C00084E496D180E00EC0BE0184E48ED180E03D
:1010D00009C088E892E09F938F930E9458200F9058
:1010E0000F9082E0DF91CF911F910895EF92FF92D0
:1010F0000F931F93CF93DF93CDB7DEB729970FB62A
:10110000F894DEBF0FBECDBF7C018B01A2D049E0B9
:10111000BE016F5F7F4FC70180DFE82F811164C080
:101120004A8150E0542F44278981482BD7018C9164
:10113000803171F44E7F440F551F440F551F440FEB
:10114000551F2F818CE090E0821B9109480F591F99
:1011500055236CF55195419551099A013295229587
:101160002F7023273F702327A0E1B7E20E941620AB
:101170004F705527A1E7B2E04A9F90014B9F300D79
:101180005A9F300D1124DC01CB01820F931FA11D4A
:10119000B11D44275527BA01481B590B6A0B7B0B1D
:1011A000D8014D935D936D937C9313971DC09A0165
:1011B000329522952F7023273F702327A0E1B7E2B5
:1011C0000E9416204F705527A1E7B2E04A9F900178
:1011D0004B9F300D5A9F300D1124AB01BC01420FC3
:1011E000531F611D711DDCCF8E2F29960FB6F89409
:1011F000DEBF0FBECDBFDF91CF911F910F91FF904A
:10120000EF9008958FB1807808958F9A879A089506
:10121000CF93C82FF894879A8AE08A95F1F700C097
:10122000C111879885E48A95F1F700008FB1880F86
:10123000880BC82385EE8A95F1F700008798611125
:10124000E4DF85E38A95F1F7000078948C2FCF9145
:1012500008958F98879A8FE797E00197F1F700C07C
:101260000000F8948798EFEFF0E03197F1F700C0B5
:1012700000008FB1EFE7F6E03197F1F700C0000012
:101280007F9B02C0807801C081E07894089560E07F
:101290008170BECF0895CF93DF93C82FD8E08C2FF5
:1012A0008170F5DFC6958111C068D150C1F78C2FD0
:1012B000DF91CF910895CF93DF93C82FD8E0D1303D
:1012C00041F060E08C2F8170A3DFC695811108C0CA
:1012D00008C061E08C2F81709BDFC695882319F0D0
:1012E000C068D15061F78C2FDF91CF910895EF92B4
:1012F000FF920F931F93CF93DF93E82EEB01F42E11
:10130000A8DF209759F085E5C6DF8E01085F1F4FE3
:101310008991C1DFC017D107D9F702C08CECBBDFC0
:10132000FF2019F08E2DC7DF02C08E2DB4DFDF91B4
:10133000CF911F910F91FF90EF9008958FEFABCF5A
:101340000895DF92EF92FF920F931F93CF93DF9355
:10135000D82E8B017EDF811128C080EF9CDFE12C2D
:10136000C0E40F2EF8EFFF2EF02DFC0E81E08FDF92
:10137000D82F81E08CDF882319F0DD23D1F017C04E
:10138000D11123C0CD15E0F0F801808180FF11C09C
:10139000CD1119C00EC0C150FC12E8CF0F5F1F4F16
:1013A000CF2DF110DECF8E2D18C08FEF16C08EEF2F
:1013B00014C080E06CDFF801908196959083EBCFAC
:1013C000EC2ED1E002C0EC2ED1E08D2F60DFF801D1
:1013D0009081969590689083DECFDF91CF911F9199
:1013E0000F91FF90EF90DF90089540E080CF089537
:1013F00041E07DCF0895CF92DF92FF920F931F932C
:10140000CF93DF93CDB7DEB729970FB6F894DEBF41
:101410000FBECDBF2FEF89EB9BED21508040904058
:10142000E1F700C0000015DF8FEF89870F2EF1E292
:10143000CF2EF6E1DF2EF02DF12C8E01075F1F4F2E
:10144000BE016F5F7F4FC8010EDE99859F3F89F017
:10145000FE013196D60181918D93E017F107D9F7FE
:10146000F394992331F028E0C20ED11C88E0F812E1
:10147000E7CF8F2D29960FB6F894DEBF0FBECDBFF4
:10148000DF91CF911F910F91FF90DF90CF90089542
:10149000B2CF08950F931F93CF93DF9300D01F9285
:1014A000CDB7DEB78C0160E070E081E0FDDD2FEFAD
:1014B0008EE994E2215080409040E1F700C00000A6
:1014C000C801880F991F880F991F880F991FBE01A7
:1014D0006F5F7F4F8F5D994E09DE69817A818B81C5
:1014E0009C810F900F900F900F90DF91CF911F91E3
:1014F0000F910895CF93DF93EC010E94AC1580917A
:10150000970390919803892B31F48CE993E09093A1
:101510009803809397032091990330919A03C9010E
:101520008C0F9D1F8F3F41E1940770F428173907F6
:1015300070F4C0919703D0919803C20FD31F90937A
:101540009A038093990305C0C0E0D0E002C0C0E0D8
:10155000D0E00E94B215CE01DF91CF910895089599
:10156000FC010396928381832FEF3FEF3483238323
:10157000968385839087878310820895FC01118666
:1015800010860895CF93DF939C01FB01DC01119637
:10159000CD91DC911297D383C2838C819D819583F9
:1015A00084838C819D81DC0113967C936E931297CA
:1015B0007D836C8331872087F90180818F5F8083F1
:1015C000DF91CF910895CF93DF93EB01488159814B
:1015D0004F3F2FEF520721F4FC01A781B0850DC0CA
:1015E000DC01139601C0DF011296ED91FC91139777
:1015F0002081318142175307B0F71296ED91FC918B
:101600001397FB83EA83D583C483BD83AC8313968E
:10161000DC93CE93129799878887FC0120812F5FF6
:101620002083DF91CF910895CF93DF93FC01A085B4
:10163000B185C281D381848195819D838C83C4814E
:10164000D581828193819B838A8311968D919C9110
:101650001297E817F90731F48481958112969C93CB
:101660008E931197118610868C9181508C93DF9107
:10167000CF91089531E1FC013083319722E220833C
:101680003197A3E3A08331976083319770833197BB
:10169000108231971082319760E860833197108211
:1016A0003197108231971082319762E060833197D1
:1016B00063E06083319764E06083319765E0608325
:1016C000319766E06083319767E06083319768E027
:1016D0006083319769E06083319760E1608331977F
:1016E0003083319732E13083319733E13083319762
:1016F00034E13083319735E13083319736E13083FF
:10170000319737E13083319738E13083319739E1D0
:101710003083319730E23083319731E23083319733
:101720002083319723E22083319740833197508380
:10173000319726E22083319727E22083319728E2F0
:101740002083319729E22083319720E3208331974A
:1017500021E320838997089588EC90E090936216A6
:1017600080936116909364168093631684E080934F
:10177000890081EE809388008BE080938100EFE602
:10178000F0E0808182608083A091FD15B091FE150C
:10179000CD91CDBFDD91DEBFFF91EF91DF91CF9174
:1017A000BF91AF919F918F917F916F915F914F9179
:1017B0003F912F911F910F91FF90EF90DF90CF906D
:1017C000BF90AF909F908F907F906F905F904F9061
:1017D0003F902F901F900F900CBE0F900BBE0F905C
:1017E0000FBE0F90089581E008950F920FB6F89400
:1017F0000F920BB60F920CB60F921F9211242F92DC
:101800003F924F925F926F927F928F929F92AF9290
:10181000BF92CF92DF92EF92FF920F931F932F937D
:101820003F934F935F936F937F938F939F93AF9368
:10183000BF93CF93DF93EF93FF93A091FD15B091EA
:10184000FE150DB60D920EB60D920E94DF17A091F7
:10185000FD15B091FE15CD91CDBFDD91DEBFFF919D
:10186000EF91DF91CF91BF91AF919F918F917F9138
:101870006F915F914F913F912F911F910F91FF9029
:10188000EF90DF90CF90BF90AF909F908F907F9020
:101890006F905F904F903F902F901F900F900CBED5
:1018A0000F900BBE0F900FBE0F9008950F920FB6C2
:1018B000F8940F920BB60F920CB60F921F92112450
:1018C0002F923F924F925F926F927F928F929F9250
:1018D000AF92BF92CF92DF92EF92FF920F931F933E
:1018E0002F933F934F935F936F937F938F939F9328
:1018F000AF93BF93CF93DF93EF93FF93A091FD1529
:10190000B091FE150DB60D920EB60D9213BE8091DC
:1019100063169091641601979093641680936316F2
:10192000892B51F40E9415028091611690916216E4
:1019300090936416809363160E94061781110E948B
:10194000DF17A091FD15B091FE15CD91CDBFDD91B2
:10195000DEBFFF91EF91DF91CF91BF91AF919F914A
:101960008F917F916F915F914F913F912F911F9137
:101970000F91FF90EF90DF90CF90BF90AF909F902E
:101980008F907F906F905F904F903F902F901F901F
:101990000F900CBE0F900BBE0F900FBE0F900895CE
:1019A00085DF18950F931F93CF93DF93082F162F82
:1019B000662309F438C0869FC001112480969ADD01
:1019C000EC01009721F436C0D983C88303C04F9639
:1019D000998388830B8F1C8F0FB6F8940F924881E0
:1019E00059812C8D30E06B8D629FC001639F900DFB
:1019F0001124BA01680F791F7B836A831A8E5D8375
:101A00004C83821B930B840F951F9F838E838FEFD4
:101A10008D8F8E8FCE010896A3DDCE014196A0DD7D
:101A20000F900FBE07C08FE190E064DDEC01892BC1
:101A300009F0CACFCE01DF91CF911F910F91089588
:101A40006F927F928F929F92AF92BF92CF92DF92CE
:101A5000EF92FF920F931F93CF93DF9300D01F92CB
:101A60001F92CDB7DEB78C015B015D834C83722E74
:101A7000812C6624639499249A947C0188E0E80E72
:101A8000F11C6801E1E1CE0ED11C0FB6F8940F9263
:101A9000F801928D838D981720F0F2E07F126EC0CE
:101AA00079C1F801448D411115C0F80180819181FF
:101AB000892B09F075C1828193810E949B19F801DD
:101AC00013821282928D9F5F928F9189992309F4DC
:101AD0004FC046C071101AC050E0B501F8018481B2
:101AE00095810E942520F801248D84819581820FA3
:101AF000911D95838483228133818217930708F493
:101B00004FC180819181958384834AC150E0B501A2
:101B1000F801868197810E942520F801848D90E04C
:101B200091958195910926813781280F391F378337
:101B30002683408151812417350730F42281338177
:101B4000820F931F97838683F2E07F1229C1F801E9
:101B5000828D882309F424C1828D8150828F20C117
:101B6000C80141960E94A718813021F43EDE02C0D0
:101B700081113BDE0F900FBE81E01AC18C819D81E7
:101B8000892B21F40F900FBE80E012C1811005C097
:101B9000CE0101960E94EF18862C0F900FBEDCD765
:101BA0000FB6F8940F92F801858D8F3F09F4158ECA
:101BB000F801868D8F3F09F4168E0F900FBEBE017F
:101BC0006C5F7F4FCE0101960E94FA18811194C07C
:101BD0000FB6F8940F92F801928D838D0F900FBE7F
:101BE000981349C06C817D81C7010E944C180FB6C3
:101BF000F8940F92F801868D1816ACF48189811142
:101C000005C011C0F8018189882369F0C6010E94CE
:101C1000A71881110E943519F801868D8150868F91
:101C2000868D18167CF3F801968E0F900FBE0FB6B6
:101C3000F8940F92858D1816ACF48085811105C03B
:101C400011C0F8018085882369F0C7010E94A71898
:101C500081110E943519F801858D8150858F858D00
:101C600018167CF3F801958E0F900FBE7BD781116B
:101C70000CCFBBDD0ACF0FB6F8940F92F801868D1A
:101C80001816ACF48189811105C011C0F801818951
:101C9000882369F0C6010E94A71881110E94351996
:101CA000F801868D8150868F868D18167CF3F80199
:101CB000968E0F900FBE0FB6F8940F92858D181662
:101CC000ACF48085811105C011C0F801808588239E
:101CD00069F0C7010E94A71881110E943519F80107
:101CE000858D8150858F858D18167CF3F801958E32
:101CF0000F900FBE37D7C9CE0FB6F8940F92F801E8
:101D0000868D1816D4F48189811106C016C0F80199
:101D10008189811105C011C07801F1E1EF0EF11C3C
:101D2000C7010E94A71881110E943519F801868DFC
:101D30008150868F868D181654F38FEFF801868FA9
:101D40000F900FBE0FB6F8940F92858D1816D4F42D
:101D50008085811106C016C0F8018085811105C0FB
:101D600011C07801F8E0EF0EF11CC7010E94A7181E
:101D700081110E943519F801858D8150858F858DDF
:101D8000181654F38FEFF801858F0F900FBEEAD627
:101D900080E00EC0F801448D442309F486CEB6CE0F
:101DA000F801828D8F5F828F81898111D9CEE2CE39
:101DB0000F900F900F900F900F90DF91CF911F9188
:101DC0000F91FF90EF90DF90CF90BF90AF909F90DA
:101DD0008F907F906F9008959F92AF92BF92CF9215
:101DE000DF92EF92FF920F931F93CF93DF9300D078
:101DF0001F921F92CDB7DEB78C017D836C83A12C1F
:101E000099249394BB24BA947C0188E0E80EF11CD9
:101E10006801E1E1CE0ED11C0FB6F8940F92F801E3
:101E2000928D838D981700F580819181892B09F01F
:101E300027C1828193810E949B19F801138212822B
:101E4000928D9F5F928F9189992341F0C8014196AD
:101E50000E94A718813021F4C8DC02C08111C5DCC2
:101E60000F900FBE81E014C18C819D81892B21F4DC
:101E70000F900FBE80E00CC1A11005C0CE010196ED
:101E80000E94EF18A92C0F900FBE66D60FB6F894DB
:101E90000F92F801858D8F3F09F4158EF801868D1C
:101EA0008F3F09F4168E0F900FBEBE016C5F7F4FFF
:101EB000CE0101960E94FA18811194C00FB6F894D1
:101EC0000F92F801928D838D0F900FBE981349C029
:101ED0006C817D81C7010E944C180FB6F8940F9257
:101EE000F801868D1816ACF48189811105C011C0E6
:101EF000F8018189882369F0C6010E94A718811121
:101F00000E943519F801868D8150868F868D1816AE
:101F10007CF3F801B68E0F900FBE0FB6F8940F92B7
:101F2000858D1816ACF48085811105C011C0F801AB
:101F30008085882369F0C7010E94A71881110E943B
:101F40003519F801858D8150858F858D18167CF3A4
:101F5000F801B58E0F900FBE05D681115DCF45DC1F
:101F60005BCF0FB6F8940F92F801868D1816ACF47B
:101F70008189811105C011C0F8018189882369F028
:101F8000C6010E94A71881110E943519F801868D9B
:101F90008150868F868D18167CF3F801B68E0F90CF
:101FA0000FBE0FB6F8940F92858D1816ACF480858D
:101FB000811105C011C0F8018085882369F0C7012F
:101FC0000E94A71881110E943519F801858D815052
:101FD000858F858D18167CF3F801B58E0F900FBE96
:101FE000C1D51ACF0FB6F8940F92F801868D181646
:101FF000D4F48189811106C016C0F801818981114C
:1020000005C011C07801F1E1EF0EF11CC7010E947B
:10201000A71881110E943519F801868D8150868F8D
:10202000868D181654F38FEFF801868F0F900FBE30
:102030000FB6F8940F92858D1816D4F4808581110F
:1020400006C016C0F8018085811105C011C0780155
:10205000F8E0EF0EF11CC7010E94A71881110E9441
:102060003519F801858D8150858F858D181654F3AB
:102070008FEFF801858F0F900FBE74D580E008C0F8
:10208000F801828D8F5F828F81898111DFCEE8CE4A
:102090000F900F900F900F900F90DF91CF911F91A5
:1020A0000F91FF90EF90DF90CF90BF90AF909F90F7
:1020B0000895CF93DF93FC01928D838D9817D0F410
:1020C000828D8F5F828F868D8F3F79F481898823FF
:1020D00099F0EB01CF0141960E94A718882371F077
:1020E000209771F081E088830CC0868D8F5F868F8A
:1020F00081E007C080E005C081E003C081E001C04D
:1021000081E0DF91CF9108956F927F928F929F929D
:10211000AF92BF92CF92DF92EF92FF920F931F93F5
:10212000CF93DF9300D01F921F92CDB7DEB78C0103
:102130005B015D834C83622E812C772473949924F8
:102140009A946C0188E0C80ED11C7801E1E1EE0E92
:10215000F11C0FB6F8940F92F801828D882309F4D0
:1021600043C0E680F780448D4423A9F050E0C701C6
:10217000840F951F9783868322813381821793076B
:1021800020F08081918197838683F8016681778131
:10219000C5010E942520611018C0F801828D815070
:1021A000828F80819181892B29F40E94DB19F801AB
:1021B00093838283F8018085882391F0C801089673
:1021C000C6D7813069F411DB0BC0F801F782E682D3
:1021D0008189882329F0C8014196B9D7811105DB8F
:1021E0000F900FBE81E008C18C819D81892B21F465
:1021F0000F900FBE80E000C1811004C0CE01019697
:10220000EED7872C0F900FBEA7D40FB6F8940F927D
:10221000F801858D8F3F09F4158EF801868D8F3F6B
:1022200009F4168E0F900FBEBE016C5F7F4FCE017A
:102230000196E0D7811197C00FB6F8940F92F8017C
:10224000828D0F900FBE811151C080819181892BA9
:1022500049F40FB6F8940F92828193810E94391944
:102260000F900FBE6C817D81C70116D70FB6F89411
:102270000F92F801868D18169CF48189811105C092
:102280000FC0F8018189882359F0C70160D78111F7
:10229000ECD7F801868D8150868F868D18168CF3C9
:1022A000F801968E0F900FBE0FB6F8940F92858DA1
:1022B00018169CF48085811105C00FC0F801808537
:1022C000882359F0C60143D78111CFD7F801858DF6
:1022D0008150858F858D18168CF3F801958E0F909F
:1022E0000FBE40D4811135CF80DA33CF0FB6F894CA
:1022F0000F92F801868D18169CF48189811105C012
:102300000FC0F8018189882359F0C70120D78111B6
:10231000ACD7F801868D8150868F868D18168CF388
:10232000F801968E0F900FBE0FB6F8940F92858D20
:1023300018169CF48085811105C00FC0F8018085B6
:10234000882359F0C60103D781118FD7F801858DF5
:102350008150858F858D18168CF3F801958E0F901E
:102360000FBE00D4F6CE0FB6F8940F92F801868D0A
:102370001816C4F48189811106C014C0F80181893E
:10238000811105C00FC07801F1E1EF0EF11CC7010A
:10239000DED681116AD7F801868D8150868F868DB1
:1023A000181664F38FEFF801868F0F900FBE0FB6EB
:1023B000F8940F92858D1816C4F48085811106C09B
:1023C00014C0F8018085811105C00FC07801F8E0C4
:1023D000EF0EF11CC701BBD6811147D7F801858DDF
:1023E0008150858F858D181664F38FEFF801858FE6
:1023F0000F900FBEB7D380E00F900F900F900F900B
:102400000F90DF91CF911F910F91FF90EF90DF9090
:10241000CF90BF90AF909F908F907F906F900895D6
:102420004F925F926F927F928F929F92AF92BF92E4
:10243000CF92DF92EF92FF920F931F93CF93DF9390
:102440004C01EB015A012901C114D10431F4CA0134
:1024500051D86C01892B09F4E1C088E290E04AD898
:102460003C010097B9F0FC01D08EC78AA50165EA4E
:1024700070E0C6010E942E20F1E0AF1AB108F3010E
:102480008789908DA80EB91E8881818F88818111DE
:1024900004C013C0C60163D8C1C0D3015A96FE015F
:1024A00031969E01285F3F4FEF0181918D93888186
:1024B000882319F02E173F07B9F7F30110A2102F48
:1024C000043008F013E0F301168B11A312A2E3010C
:1024D0002296CE0153D8C3010C9650D8F3017186D1
:1024E000608684E090E0811B910995878487738AD8
:1024F000628A13A214A215A216A217A2A201B40105
:10250000C501B8D8F30191838083E114F10419F077
:10251000F701718260820FB6F8940F928091A61530
:102520008F5F8093A6158091FD159091FE15892BE4
:10253000B1F57092FE156092FD158091A61581305F
:1025400009F03CC089ED95E10BD882EE95E108D801
:102550008BEE95E105D884EF95E102D880ED95E109
:102560000E94B00A87EC95E10E94B00A8AEB95E1DF
:102570000E94B00A81EB95E10E94B00A87EA95E1DA
:102580000E94B00A80ED95E19093C6158093C51521
:1025900087EC95E19093C4158093C3150FC080918B
:1025A000A21581110BC0E091FD15F091FE158689F1
:1025B000081720F07092FE156092FD1580919E150F
:1025C0008F5F80939E15F30186899091A3159817CC
:1025D00010F48093A31590E09C01220F331F220F6B
:1025E000331F220F331F820F931FBE0187529A4E53
:1025F0000E94C20A0F900FBE8091A215882351F04D
:10260000E091FD15F091FE158689801728F4EDD82C
:1026100081E005C081E003C081E001C08FEFDF9160
:10262000CF911F910F91FF90EF90DF90CF90BF90CF
:10263000AF909F908F907F906F905F904F90089594
:102640009F92AF92BF92CF92DF92EF92FF920F9341
:102650001F93CF93DF93009709F47EC120919B15C0
:102660002F5F20939B15C091A415D091A515C80F7D
:10267000D91F8091FD159091FE1502960E94140BB2
:10268000E091FD15F091FE15D383C2838091A415CE
:102690009091A515C817D90768F46091FD15709140
:1026A000FE158091C3159091C4156E5F7F4F0E94F7
:1026B000E30A17C06091FD157091FE158091C51554
:1026C0009091C6156E5F7F4F0E94E30A80919C1522
:1026D00090919D15C817D90720F4D0939D15C093EC
:1026E0009C150FB6F8940F9280919B1581508093A2
:1026F0009B1580919B15811128C18091A615811190
:1027000033C026C1D7011596ED91FC911697C6816D
:10271000D781CE010C960E94140B8E010E5F1F4FC5
:10272000C8010E94140B8E899091A315981710F47C
:102730008093A31590E09C01220F331F220F331FBB
:10274000220F331F820F931FB80187529A4E0E94A7
:10275000C20AE091FD15F091FE159E8986899817B1
:1027600058F0D092A01508C00F2EFAEBEF2EF5E12D
:10277000FF2EF02DDD24D394F70180818111C2CF8B
:102780008091A115882309F4D8C08091A1158823D0
:1027900009F4D3C0912CBB24B394CC24CA94DC2C70
:1027A00080919B158111AFC08091A4159091A515C2
:1027B00001969093A5158093A415E090A415F09030
:1027C000A515E114F10489F58091C5159091C61500
:1027D0002091C3153091C4153093C6152093C515AB
:1027E0009093C4158093C31580919F158F5F80933C
:1027F0009F15E091C515F091C6158081811105C026
:10280000D0929D15C0929C1510C0E091C515F09115
:10281000C6150580F681E02D0680F781E02D8281C6
:10282000938190939D1580939C1580919C15909118
:102830009D15E816F90610F4A92C4FC0A92CE091BB
:10284000C515F091C6158081811105C0D0929D15E6
:10285000C0929C1542C0E091C515F091C615058047
:10286000F681E02DC681D7818A819B81E816F90621
:1028700028F490939D1580939C152FC08E010E5FB8
:102880001F4FC8010E94140B8C899D89892B21F050
:10289000CE010C960E94140B8E899091A315981767
:1028A00010F48093A31590E09C01220F331F220F98
:1028B000331F220F331F820F931FB80187529A4E86
:1028C0000E94C20AE091FD15F091FE159E8986894D
:1028D000981708F4B4CFAB2CB2CFE091FD15F0916E
:1028E000FE15868990E0FC01EE0FFF1FEE0FFF1F23
:1028F000EE0FFF1F8E0F9F1FFC01E752FA4E8081E3
:10290000823068F50AC08091A1158F5F8093A11570
:102910008091A015882341F005C08091A0158111F8
:1029200001C0A110B092A0158091A1158150809393
:10293000A1158091A115811133CF8091A01581300F
:1029400031F40E94F50B81E003C080E001C080E01B
:102950000F900FBE811106C00E94F50B03C080913D
:10296000A015E0CFDF91CF911F910F91FF90EF90D5
:10297000DF90CF90BF90AF909F900895EF92FF921D
:102980000F931F93CF93DF9384E690E00E947A0A1F
:102990008C01892B09F4D9C088E290E00E947A0A60
:1029A000EC01892BB1F0188F0F8B44E650E065EAFB
:1029B00070E0C8010E942E200F89188D0D591F4FFD
:1029C00089E4898FE9E6F3E0DE015A9620E733E0F7
:1029D00004C0C8010E94AF0AB8C081918D938823BA
:1029E00019F0E217F307C9F718A21E8A19A21AA252
:1029F0007E0182E0E80EF11CC7010E94BE0ACE01F2
:102A00000C960E94BE0AD987C88784E090E09D8713
:102A10008C87DB8BCA8B1BA21CA21DA21EA21FA22D
:102A200040E050E062E870E0C8010E943A0B9983F0
:102A300088830FB6F8940F928091A6158F5F8093CC
:102A4000A6158091FD159091FE15892BD1F5D09397
:102A5000FE15C093FD158091A615813009F040C088
:102A600089ED95E10E94B00A82EE95E10E94B00ADC
:102A70008BEE95E10E94B00A84EF95E10E94B00AC6
:102A800080ED95E10E94B00A87EC95E10E94B00AC2
:102A90008AEB95E10E94B00A81EB95E10E94B00AB1
:102AA00087EA95E10E94B00A80ED95E19093C61502
:102AB0008093C51587EC95E19093C4158093C31559
:102AC0000FC08091A21581110BC0E091FD15F0910E
:102AD000FE158689811104C0D093FE15C093FD15A3
:102AE00080919E158F5F80939E158E899091A3157E
:102AF000981710F48093A31590E09C01220F331FC8
:102B0000220F331F220F331F820F931FB7018752EB
:102B10009A4E0E94C20A0F900FBE8091A215882380
:102B200021F08091FD159091FE15F8948FEF9FEFA5
:102B300090939D1580939C1581E08093A21510922F
:102B4000A5151092A4150E94AC0BDF91CF911F9197
:102B50000F91FF90EF90089580919B158F5F809368
:102B60009B1508959F92AF92BF92CF92DF92EF9202
:102B7000FF920F931F93CF93DF930FB6F8940F92AA
:102B800080919B15815080939B1580919B1581119D
:102B900028C18091A615811133C026C1D701159691
:102BA000ED91FC911697C681D781CE010C960E94BB
:102BB000140B8E010E5F1F4FC8010E94140B8E89EB
:102BC0009091A315981710F48093A31590E09C01A1
:102BD000220F331F220F331F220F331F820F931F29
:102BE000B80187529A4E0E94C20AE091FD15F091F9
:102BF000FE159E898689981758F0D092A01508C0B6
:102C00000F2EFAEBEF2EF5E1FF2EF02DDD24D394FD
:102C1000F70180818111C2CF8091A115882309F429
:102C2000D8C08091A115882309F4D3C0912CBB246E
:102C3000B394CC24CA94DC2C80919B158111AFC035
:102C40008091A4159091A51501969093A515809358
:102C5000A415E090A415F090A515E114F10489F5F0
:102C60008091C5159091C6152091C3153091C4155A
:102C70003093C6152093C5159093C4158093C31542
:102C800080919F158F5F80939F15E091C515F091FE
:102C9000C6158081811105C0D0929D15C0929C15EA
:102CA00010C0E091C515F091C6150580F681E02DA4
:102CB0000680F781E02D8281938190939D1580930A
:102CC0009C1580919C1590919D15E816F90610F4BD
:102CD000A92C4FC0A92CE091C515F091C615808193
:102CE000811105C0D0929D15C0929C1542C0E09103
:102CF000C515F091C6150580F681E02DC681D781F6
:102D00008A819B81E816F90628F490939D1580939B
:102D10009C152FC08E010E5F1F4FC8010E94140B1F
:102D20008C899D89892B21F0CE010C960E94140B71
:102D30008E899091A315981710F48093A31590E0B5
:102D40009C01220F331F220F331F220F331F820FCC
:102D5000931FB80187529A4E0E94C20AE091FD1556
:102D6000F091FE159E898689981708F4B4CFAB2C94
:102D7000B2CFE091FD15F091FE15868990E0FC013F
:102D8000EE0FFF1FEE0FFF1FEE0FFF1F8E0F9F1F97
:102D9000FC01E752FA4E8081823048F50AC08091EA
:102DA000A1158F5F8093A1158091A015811106C098
:102DB00007C08091A015811101C0A110B092A0158B
:102DC0008091A11581508093A1158091A115811149
:102DD00033CF8091A015813031F40E94F50B81E052
:102DE00003C080E001C080E00F900FBE03C080915F
:102DF000A015E4CFDF91CF911F910F91FF90EF903D
:102E0000DF90CF90BF90AF909F900895CF92DF92C8
:102E1000EF92FF920F931F93CF93DF9380919B15B7
:102E20008111B7C08091A4159091A515019690933A
:102E3000A5158093A415E090A415F090A515E114B4
:102E4000F10499F58091C5159091C6152091C3158F
:102E50003091C4153093C6152093C5159093C415B1
:102E60008093C31580919F158F5F80939F15E0918C
:102E7000C515F091C6158081811107C08FEF9FEFB6
:102E800090939D1580939C1510C0E091C515F0910D
:102E9000C6150580F681E02D0680F781E02D828140
:102EA000938190939D1580939C1580919C15909192
:102EB0009D15E816F90610F4D12C53C0D12CCC2462
:102EC000C394E091C515F091C6158081811107C0AA
:102ED0008FEF9FEF90939D1580939C1542C0E091DA
:102EE000C515F091C6150580F681E02DC681D78104
:102EF0008A819B81E816F90628F490939D158093AA
:102F00009C152FC08E010E5F1F4FC8010E94140B2D
:102F10008C899D89892B21F0CE010C960E94140B7F
:102F20008E899091A315981710F48093A31590E0C3
:102F30009C01220F331F220F331F220F331F820FDA
:102F4000931FB80187529A4E0E94C20AE091FD1564
:102F5000F091FE159E898689981708F4B2CFDC2C73
:102F6000B0CFE091FD15F091FE15868990E0FC014F
:102F7000EE0FFF1FEE0FFF1FEE0FFF1F8E0F9F1FA5
:102F8000FC01E752FA4E8081823048F0DD24D39470
:102F900006C08091A1158F5F8093A115D12C8091DF
:102FA000A015882311F0DD24D3948D2DDF91CF91CE
:102FB0001F910F91FF90EF90DF90CF900895809137
:102FC0009B15882321F081E08093A015089510922D
:102FD000A0158091A31590E0FC01EE0FFF1FEE0FEE
:102FE000FF1FEE0FFF1F8E0F9F1FFC01E752FA4ECF
:102FF0008081811117C08091A31581508093A31502
:103000008091A31590E0FC01EE0FFF1FEE0FFF1F54
:10301000EE0FFF1F8E0F9F1FFC01E752FA4E8081BB
:10302000882349F38091A31590E09C01220F331F60
:10303000220F331F220F331F280F391FD901A75228
:10304000BA4E1196ED91FC9112970280F381E02D1A
:103050001296FC93EE93119724523A4EE217F3071F
:1030600029F422813381FD0132832183FC01EE0F9B
:10307000FF1FEE0FFF1FEE0FFF1F8E0F9F1FFC01A4
:10308000E752FA4E0180F281E02D8681978190937C
:10309000FE158093FD150895CF93DF93EB016091AA
:1030A000FD157091FE15645F7F4F0E94E30A8091C9
:1030B000FD159091FE1502960E94140BCF3F8FEFE5
:1030C000D80759F46091FD157091FE156E5F7F4F22
:1030D00087EA95E10E94C20A37C08091A4159091B9
:1030E000A515C80FD91FE091FD15F091FE15D383EA
:1030F000C2838091A4159091A515C817D90768F4CB
:103100006091FD157091FE158091C3159091C415C5
:103110006E5F7F4F0E94E30A17C06091FD157091AA
:10312000FE158091C5159091C6156E5F7F4F0E9468
:10313000E30A80919C1590919D15C817D90720F43A
:10314000D0939D15C0939C15DF91CF9108950F9357
:103150001F93CF93DF93DC011596ED91FC911697A9
:10316000C681D7818E01045F1F4FC8010E94140BD6
:1031700080919B1581111CC00A501109C8010E9441
:10318000140B8E899091A315981710F48093A315B2
:1031900090E09C01220F331F220F331F220F331F99
:1031A000820F931FB80187529A4E0E94C20A05C02F
:1031B000B8018AEB95E10E94C20AE091FD15F091F9
:1031C000FE159E898689891720F481E08093A015D9
:1031D00001C080E0DF91CF911F910F910895209160
:1031E0009F15FC0120832091A4153091A5153283F1
:1031F00021830895FC010FB6F8940F922091A41535
:103200003091A515DB018D919C918F3FBFEF9B07FE
:1032100021F140919F155081541729F0418152812D
:1032200024173507E0F441815281D901A41BB50B65
:10323000A817B907B0F4421B530B840F951FDB018D
:103240008D939C9380919F1580838091A41590917C
:10325000A5159283818380E005C080E003C081E0F2
:1032600001C081E00F900FBE089581E08093A0150A
:1032700008950F931F93CF93DF93FC01892B09F4DB
:1032800055C02689A091FD15B091FE1556968C91DA
:10329000281708F04BC084859585992364F0A09188
:1032A000FD15B091FE1556963C9184E090E0831B8D
:1032B00091099587848730E0C901880F991F880F8D
:1032C000991F880F991F280F391F27523A4E828560
:1032D00093858217930719F58F01EF012296CE018E
:1032E0000E94140BE091FD15F091FE158689F801FE
:1032F000868B9091A315981710F48093A31590E0F6
:103300009C01220F331F220F331F220F331F820F06
:10331000931FBE0187529A4E0E94C20A07C0A09115
:10332000FD15B091FE1556968C91868BDF91CF914D
:103330001F910F9108950F931F93CF93DF93FC017B
:10334000892B79F182A1815082A3268991A1291725
:1033500051F181112AC0EF018F010E5F1F4FC8018B
:103360000E94140B89A18E8B24E030E0281B3109C8
:103370003D872C879091A315981710F48093A3157F
:1033800090E09C01220F331F220F331F220F331FA7
:10339000820F931FB80187529A4E0E94C20A81E0A1
:1033A00005C080E003C080E001C080E0DF91CF91E4
:1033B0001F910F9108958091FD159091FE15892B15
:1033C00039F0E091FD15F091FE1582A18F5F82A387
:1033D0008091FD159091FE1508954F925F926F9226
:1033E0007F928F929F92AF92BF92CF92DF92EF9295
:1033F000FF920F931F93CF93DF93EC01FB0101909A
:103400000020E9F74B019F01215031090F2EF1E314
:10341000EF2EFF24F394F02D01ED10E069EC70E045
:1034200041EC50E05C018DE0A80EB11C7FC0D401DE
:10343000DD904D010FB6F8940F92ED85FE850F904B
:103440000FBE8F89988DE817F907F1F0F501828199
:103450009381DC01DC928281938101969383828344
:10346000C084D1848C159D0521F486819781938336
:1034700082830FB6F8940F92808191810196918397
:1034800080830F900FBE33C0BFEFEFE8F1E0B15083
:10349000E040F040E1F700C000000FB6F8940F9252
:1034A000ED85FE850F900FBE8F89988DE817F9077F
:1034B00009F43CC0F50182819381DC01DC928281B8
:1034C0009381019693838283C084D1848C159D055A
:1034D00021F486819781938382830FB6F8940F92AB
:1034E000808191810196918380830F900FBE4880E7
:1034F000512CB8E04B165104C8F4F2018827EE585D
:10350000FF4F8F4F8BC5FA018081806280830EC090
:10351000DB018C9180628C9309C0F801808180620C
:10352000808304C0D7018C9180628C9382169306AD
:1035300009F07DCFDF91CF911F910F91FF90EF9018
:10354000DF90CF90BF90AF909F908F907F906F90C3
:103550005F904F9008950F931F93CF93DF93CDB754
:10356000DEB708851985F801858D813031F40E9418
:10357000F50BF801858D8130D1F381E0F801858F5D
:10358000638D748D9E01245F3F4F4A855B85818DDD
:10359000928DA1D5F801618D728DC8011EDFF801F1
:1035A000158EDF91CF911F910F9108957F928F9289
:1035B0009F92AF92BF92CF92DF92EF92FF920F93C2
:1035C0001F93CF93DF93CDB7DEB7A2970FB6F894D2
:1035D000DEBF0FBECDBF6C01762E49015A01C70177
:1035E0000E947A0A0097A9F0FE0132960FB6F8946D
:1035F0000F921182108293838283958384839783B1
:1036000086838E0D9F1D91878087F386E2860F90BB
:103610000FBEC8010E947A0A0097A9F0FE013E96EB
:103620000FB6F8940F921182108293838283958350
:10363000848397838683800F911F91878087138768
:1036400002870F900FBEC8010E947A0A9B8F8A8F53
:1036500079821D8F0C8F1E8E8F8E98A2A9A2BAA27E
:103660000FB6F8940F92898190E08830910508F0A8
:10367000B1C1FC018827E658FF4F8F4FCFC4D50159
:10368000C401975FA24CBF4FBC01CD01660F771FED
:10369000881F991F660F771F881F991F9501840146
:1036A000000F111F221F331F000F111F221F331F76
:1036B000A9019801220F331F441F551F71D42150B7
:1036C00031093093C5002093C40082E08093C0008C
:1036D00088E98093C1008EE08093C2007BC104EC36
:1036E00010E0F801118210826A9A80EC8093C20087
:1036F00088E98093C100D501C40180589B47A14E41
:10370000BF4F880F991FAA1FBB1F880F991FAA1FA1
:10371000BB1FBC01CD01660F771F881F991F880C46
:10372000991CAA1CBB1C880C991CAA1CBB1CA501BB
:103730009401220F331F441F551F220F331F441FB4
:10374000551F2ED421503109F8013183208342C105
:10375000D501C401975FA24CBF4FBC01CD01660FDC
:10376000771F881F991F660F771F881F991F950164
:103770008401000F111F221F331F000F111F221F72
:10378000331FA9019801220F331F441F551F08D46E
:10379000215031093093CD002093CC0082E08093FA
:1037A000C80088E98093C9008EE08093CA0012C1E6
:1037B0000CEC10E0F80111821082559A80EC809395
:1037C000CA0088E98093C900D501C40180589B478D
:1037D000A14EBF4F880F991FAA1FBB1F880F991FAB
:1037E000AA1FBB1FBC01CD01660F771F881F991F41
:1037F000880C991CAA1CBB1C880C991CAA1CBB1CFD
:10380000A5019401220F331F441F551F220F331FA0
:10381000441F551FC5D321503109F801318320833E
:10382000D9C0D501C401975FA24CBF4FBC01CD01E7
:10383000660F771F881F991F660F771F881F991FB4
:1038400095018401000F111F221F331F000F111F4C
:10385000221F331FA9019801220F331F441F551F38
:103860009FD3215031093093D5002093D40082E0BA
:103870008093D00088E98093D1008EE08093D200BD
:10388000A9C004ED10E0F80111821082E1E0F1E03E
:1038900080818460808380EC8093D20088E980936B
:1038A000D100D501C40180589B47A14EBF4F880F5E
:1038B000991FAA1FBB1F880F991FAA1FBB1FBC01FE
:1038C000CD01660F771F881F991F880C991CAA1CB1
:1038D000BB1C880C991CAA1CBB1CA5019401220FBF
:1038E000331F441F551F220F331F441F551F58D32A
:1038F00021503109F801318320836CC0D501C40106
:10390000975FA24CBF4FBC01CD01660F771F881F88
:10391000991F660F771F881F991F95018401000F5B
:10392000111F221F331F000F111F221F331FA90158
:103930009801220F331F441F551F32D321503109E4
:10394000309335012093340182E08093300188E97F
:10395000809331018EE0809332013CC004E311E09A
:10396000F80111821082E4E0F1E0808184608083BC
:1039700080EC8093320188E980933101D501C40144
:1039800080589B47A14EBF4F880F991FAA1FBB1F8E
:10399000880F991FAA1FBB1FBC01CD01660F771F9F
:1039A000881F991F880C991CAA1CBB1C880C991C89
:1039B000AA1CBB1CA5019401220F331F441F551FD5
:1039C000220F331F441F551FEBD221503109F8013C
:1039D000318320830F900FBE82E2FE013196D60123
:1039E00001900D928A95E1F7C601A2960FB6F89460
:1039F000DEBF0FBECDBFDF91CF911F910F91FF9022
:103A0000EF90DF90CF90BF90AF909F908F907F907E
:103A100008951F920F920FB60F9211240BB60F92BA
:103A20002F933F934F938F939F93AF93BF93EF93B6
:103A3000FF938091C0008C7171F08091C000882349
:103A40000CF036C0A6ECB0E0E0ECF0E08C918081A8
:103A50008823E4F32DC04091C6000FB6F8940F926E
:103A6000EFEFF5E1218132810F900FBE83859485C0
:103A700028173907E9F0E0E0F6E1A281B3814C9321
:103A80008281938101969383828320853185821779
:103A9000930721F486819781938382830FB6F894EC
:103AA0000F92808191810196918380830F900FBE48
:103AB000FF91EF91BF91AF919F918F914F913F9166
:103AC0002F910F900BBE0F900FBE0F901F90189567
:103AD0001F920F920FB60F9211240BB60F922F93D5
:103AE0008F939F93AF93BF93EF93FF930FB6F89489
:103AF0000F9280910C1690910D160F900FBE892B8E
:103B000031F4E1ECF0E080818F7D80831CC0ECE03B
:103B1000F6E1A481B5812D91B583A483808591853B
:103B2000A817B90721F486819781958384830FB6FE
:103B3000F8940F92808191810197918380830F90F7
:103B40000FBE2093C600FF91EF91BF91AF919F915F
:103B50008F912F910F900BBE0F900FBE0F901F9063
:103B600018951F920F920FB60F9211240BB60F9259
:103B70002F933F934F938F939F93AF93BF93EF9365
:103B8000FF938091C8008C7171F08091C8008823E8
:103B90000CF036C0AEECB0E0E8ECF0E08C91808147
:103BA0008823E4F32DC04091CE000FB6F8940F9215
:103BB000E9EAF6E1218132810F900FBE8385948579
:103BC00028173907E9F0EAEAF6E1A281B3814C93BC
:103BD0008281938101969383828320853185821728
:103BE000930721F486819781938382830FB6F8949B
:103BF0000F92808191810196918380830F900FBEF7
:103C0000FF91EF91BF91AF919F918F914F913F9114
:103C10002F910F900BBE0F900FBE0F901F90189515
:103C20001F920F920FB60F9211240BB60F922F9383
:103C30008F939F93AF93BF93EF93FF930FB6F89437
:103C40000F928091B6169091B7160F900FBE892BE8
:103C500031F4E9ECF0E080818F7D80831CC0E6EBDD
:103C6000F6E1A481B5812D91B583A48380859185EA
:103C7000A817B90721F486819781958384830FB6AD
:103C8000F8940F92808191810197918380830F90A6
:103C90000FBE2093CE00FF91EF91BF91AF919F9106
:103CA0008F912F910F900BBE0F900FBE0F901F9012
:103CB00018951F920F920FB60F9211240BB60F9208
:103CC0002F933F934F938F939F93AF93BF93EF9314
:103CD000FF938091D0008C7171F08091D000882387
:103CE0000CF036C0A6EDB0E0E0EDF0E08C91808104
:103CF0008823E4F32DC04091D6000FB6F8940F92BC
:103D0000E5E6F6E1218132810F900FBE838594852F
:103D100028173907E9F0E6E6F6E1A281B3814C9372
:103D200082819381019693838283208531858217D6
:103D3000930721F486819781938382830FB6F89449
:103D40000F92808191810196918380830F900FBEA5
:103D5000FF91EF91BF91AF919F918F914F913F91C3
:103D60002F910F900BBE0F900FBE0F901F901895C4
:103D70001F920F920FB60F9211240BB60F922F9332
:103D80008F939F93AF93BF93EF93FF930FB6F894E6
:103D90000F9280917216909173160F900FBE892B1F
:103DA00031F4E1EDF0E080818F7D80831CC0E2E79B
:103DB000F6E1A481B5812D91B583A4838085918599
:103DC000A817B90721F486819781958384830FB65C
:103DD000F8940F92808191810197918380830F9055
:103DE0000FBE2093D600FF91EF91BF91AF919F91AD
:103DF0008F912F910F900BBE0F900FBE0F901F90C1
:103E000018951F920F920FB60F9211240BB60F92B6
:103E10002F933F934F938F939F93AF93BF93EF93C2
:103E2000FF93809130018C7171F080913001882373
:103E30000CF036C0A6E3B1E0E0E3F1E08C918081C4
:103E40008823E4F32DC0409136010FB6F8940F9209
:103E5000E7E8F6E1218132810F900FBE83859485DA
:103E600028173907E9F0E8E8F6E1A281B3814C931D
:103E70008281938101969383828320853185821785
:103E8000930721F486819781938382830FB6F894F8
:103E90000F92808191810196918380830F900FBE54
:103EA000FF91EF91BF91AF919F918F914F913F9172
:103EB0002F910F900BBE0F900FBE0F901F90189573
:103EC0001F920F920FB60F9211240BB60F922F93E1
:103ED0008F939F93AF93BF93EF93FF930FB6F89495
:103EE0000F9280919416909195160F900FBE892B8A
:103EF00031F4E1E3F1E080818F7D80831CC0E4E94F
:103F0000F6E1A481B5812D91B583A4838085918547
:103F1000A817B90721F486819781958384830FB60A
:103F2000F8940F92808191810197918380830F9003
:103F30000FBE20933601FF91EF91BF91AF919F91FA
:103F40008F912F910F900BBE0F900FBE0F901F906F
:103F50001895AA1BBB1B51E107C0AA1FBB1FA617C0
:103F6000B70710F0A61BB70B881F991F5A95A9F722
:103F700080959095BC01CD01089597FB072E16F40E
:103F8000009406D077FD08D0E4DF07FC05D03EF4AE
:103F9000909581959F4F0895709561957F4F0895F5
:103FA000A1E21A2EAA1BBB1BFD010DC0AA1FBB1F3D
:103FB000EE1FFF1FA217B307E407F50720F0A21BAF
:103FC000B30BE40BF50B661F771F881F991F1A941C
:103FD00069F760957095809590959B01AC01BD0146
:103FE000CF010895052E97FB16F400940FD057FDCE
:103FF00005D0D6DF07FC02D046F408C050954095A6
:10400000309521953F4F4F4F5F4F08959095809584
:10401000709561957F4F8F4F9F4F0895EE0FFF1F53
:10402000881F8BBF0790F691E02D1994A29FB001D5
:10403000B39FC001A39F700D811D1124911DB29FDC
:10404000700D811D1124911D0895FB01DC0102C03A
:1040500001900D9241505040D8F70895DC0101C005
:104060006D9341505040E0F70895BB274A3031F43A
:10407000992322F4BDE2909581959F4F01C0BB2703
:10408000FB015527AA27880F991FAA1FA41710F014
:10409000A41B83955051B9F7A05DAA3308F0A95D20
:1040A000A193009779F7B111B1931192CB015EC240
:1040B000CF93DF93CDB7DEB7AE014A5F5F4FFA0112
:1040C00061917191AF018091CD169091CE163BD048
:1040D000DF91CF9108950F931F93CF93DF93CDB7C7
:1040E000DEB72E970FB6F894DEBF0FBECDBF8C01A2
:1040F000FA0186E08C831A83098377FF02C060E0AF
:1041000070E8CB0101979E838D83A901BF01CE0189
:10411000019619D04D815E8157FD0AC02F813885E7
:10412000421753070CF49A01F801E20FF31F1082B3
:104130002E960FB6F894DEBF0FBECDBFDF91CF91A4
:104140001F910F9108952F923F924F925F926F921D
:104150007F928F929F92AF92BF92CF92DF92EF9217
:10416000FF920F931F93CF93DF93CDB7DEB72B97BB
:104170000FB6F894DEBF0FBECDBF6C017B018A0184
:10418000FC0117821682838181FFBFC1CE01019697
:104190003C01F6019381F70193FD859193FF819195
:1041A0007F01882309F4ADC1853239F493FD8591EF
:1041B00093FF81917F01853221F4B60190E0E6D131
:1041C000E8CF912C212C312CFFE1F315D8F08B3264
:1041D00079F038F4803279F08332A1F4232D206114
:1041E0001DC08D3261F0803369F4232D216016C02B
:1041F000832D8260382EE32DE4603E2E2AC0F32DFD
:10420000F8601DC037FC2DC020ED280F2A3040F08B
:104210008E32B9F436FC75C1232D2064322E19C0BC
:1042200036FE06C08AE0989E200D1124922E11C001
:10423000EAE02E9E200D1124222EF32DF0623F2E57
:1042400008C08C3621F4832D8068382E02C0883651
:1042500041F4F70193FD859193FF81917F018111D5
:10426000B3CF982F9F7D9554933028F40C5F1F4F48
:104270009FE399830DC0833631F0833771F0833526
:1042800009F055C020C0F801808189830E5F1F4F5F
:1042900088248394912C530112C02801F2E04F0E20
:1042A000511CF801A080B18036FE03C0692D70E07A
:1042B00002C06FEF7FEFC5014ED14C018201F32D9B
:1042C000FF773F2E15C0280122E0420E511CF80155
:1042D000A080B18036FE03C0692D70E002C06FEF90
:1042E0007FEFC5012DD14C01F32DF0683F2E8201E7
:1042F00033FC19C0822D90E088169906A0F4B6010F
:1043000080E290E043D12A94F5CFF50137FC859106
:1043100037FE81915F01B60190E038D121102A94D7
:1043200021E0821A91088114910479F7E1C0843662
:1043300011F0893639F5F80137FE07C060817181C7
:10434000828193810C5F1F4F08C060817181072EAD
:10435000000C880B990B0E5F1F4FF32DFF763F2E3D
:1043600097FF09C090958095709561957F4F8F4F0D
:104370009F4FF0683F2E2AE030E0A30143D1882E02
:10438000861844C0853731F4232D2F7EB22E2AE0C3
:1043900030E025C0932D997FB92E8F36C1F018F4E7
:1043A000883579F0AEC0803719F0883721F0A9C080
:1043B000E92FE061BE2EB4FE0DC0FB2DF460BF2ED0
:1043C00009C034FE0AC0292F2660B22E06C028E09C
:1043D00030E005C020E130E002C020E132E0F80129
:1043E000B7FE07C060817181828193810C5F1F4F8E
:1043F00006C06081718180E090E00E5F1F4FA301D5
:1044000001D1882E8618FB2DFF773F2E36FE0DC07A
:10441000232D2E7FA22E891458F434FE0BC032FCBB
:1044200009C0832D8E7EA82E05C0B82CA32C03C0F6
:10443000B82C01C0B92CA4FE0FC0FE01E80DF11D7F
:104440008081803321F49A2D997EA92E09C0A2FE85
:1044500006C0B394B39404C08A2D867809F0B3944F
:10446000A3FC10C0A0FE06C0B21480F4280C922C4D
:104470009B180DC0B21458F4B60180E290E086D0CB
:10448000B394F8CFB21418F42B1802C0982C212C36
:10449000A4FE0FC0B60180E390E078D0A2FE16C063
:1044A000A1FC03C088E790E002C088E590E0B60177
:1044B0000CC08A2D867851F0A1FE02C08BE201C0AB
:1044C00080E2A7FC8DE2B60190E060D0891430F460
:1044D000B60180E390E05AD09A94F8CF8A94F30121
:1044E000E80DF11D8081B60190E050D08110F6CF2B
:1044F000222009F44ECEB60180E290E047D02A9403
:10450000F7CFF6018681978102C08FEF9FEF2B9640
:104510000FB6F894DEBF0FBECDBFDF91CF911F91D4
:104520000F91FF90EF90DF90CF90BF90AF909F9052
:104530008F907F906F905F904F903F902F90089555
:10454000FC010590615070400110D8F7809590955E
:104550008E0F9F1F0895FC01615070400190011063
:10456000D8F7809590958E0F9F1F0895DC01FC0170
:10457000672F71917723E1F7329704C07C916D9397
:1045800070836291AE17BF07C8F308950F931F930E
:10459000CF93DF93FB01238121FD03C08FEF9FEFBA
:1045A0002CC022FF16C046815781248135814217D5
:1045B000530744F4A081B1819D012F5F3F4F3183A8
:1045C00020838C93268137812F5F3F4F378326834B
:1045D00014C08B01EC01FB010084F185E02D1995DD
:1045E000892BE1F6D80116968D919C91179701962B
:1045F00017969C938E931697CE01DF91CF911F91C2
:104600000F910895FA01AA27283051F1203181F144
:10461000E8946F936E7F6E5F7F4F8F4F9F4FAF4FCA
:10462000B1E03ED0B4E03CD0670F781F891F9A1FDD
:10463000A11D680F791F8A1F911DA11D6A0F711D91
:10464000811D911DA11D20D009F468943F912AE09D
:10465000269F11243019305D3193DEF6CF01089585
:10466000462F4770405D4193B3E00FD0C9F7F6CFB6
:10467000462F4F70405D4A3318F0495D31FD40527E
:10468000419302D0A9F7EACFB4E0A6959795879514
:1046900077956795BA95C9F70097610571050895F3
:1046A0009B01AC010A2E069457954795379527959F
:1046B000BA95C9F7620F731F841F951FA01D089537
:0446C000F894FFCF9C
:1046C4000D0A41726475696E6F2072756E6E696E43
:1046D400672E2E0D0A00446973706C61793D25695B
:1046E4003033204320200A486973746F72793D2562
:1046F400693032005570646174653D25693033203A
:104704004320200A446973706C61793D2569303215
:1047140000446973706C61793D256930332043200E
:10472400200A4D696E4D61783D256930320056414D
:104734004C55453D256930332020200A42555454B8
:104744004F4E3D2569303200445331385832305F82
:1047540073746172745F6D6561733A2053686F722C
:10476400742043697263756974210D0044533138B0
:104774005832305F77726974655F73637261746312
:10478400687061643A2053686F727420436972637D
:10479400756974210D00445331385832305F7265A5
:1047A40061645F736372617463687061643A205317
:1047B400686F72742043697263756974210D0044D3
:1047C4005331385832305F636F70795F736372614D
:1047D4007463687061643A2053686F72742043692B
:1047E4007263756974210D00445331385832305F57
:1047F400726563616C6C5F45323A2074696D656FF4
:104804007574210D00445331385832305F7265633A
:10481400616C6C5F45323A2053686F72742043694F
:0E4824007263756974210D0049444C45000013
:00000001FF
