S00B0000756E6F2E73726563C7
S1130000E8C1000006C2000004C2000002C20000F1
S113001000C20000FEC10000FCC10000FAC10000E3
S1130020F8C10000F6C10000F4C10000F2C10000F4
S1130030F0C10000EEC10000ECC10000EAC1000004
S1130040E8C10000EBC40000E4C10000E2C100000C
S1130050E0C10000DEC10000DCC10000DAC1000024
S1130060D8C100000C94520C0C94B10CD2C1000005
S1130070D0C10000CEC10000CCC10000CAC1000044
S1130080C8C10000C6C10000C4C10000C2C1000054
S11300900C94FA0C0C94590DBCC10000BAC10000B8
S11300A0B8C10000B6C10000B4C10000B2C1000074
S11300B0B0C10000AEC10000ACC10000AAC1000084
S11300C0A8C10000A6C10000A4C100000C94A20DA8
S11300D00C94010E9EC100000C944A0E0C94A90EBF
S11300E098C10000000A000A070A070A0E0A0E0A4D
S11300F0150A150A880AB80AF10A210B5A0B8A0B49
S1130100C70BF70B0F2EF0E3AF2EF4E1BF2EF02D4B
S113011009E314E188248A94982C33243394432CDF
S1130120732C48C180911A148F5F80931A14D501DF
S11301306C900FB6F8940F9280911A1481508093AA
S11301401A1480911A14811113C1809125148111FC
S113015030C00EC1D8011596ED91FC911697C68159
S1130160D781CE010C96A2D27E01B2E0EB0EF11C37
S1130170C7019CD28E8990912214981710F4809311
S1130180221490E09C01220F331F220F331F220FF1
S1130190331F820F931FB701885A9B4E66D2E0919A
S11301A07C14F0917D149E898689981710F04092F2
S11301B01F14F80180818111CDCF809120148823F0
S11301C009F4D1C080912014882309F4CCC0809113
S11301D01A148111AEC080912314909124140196B5
S11301E09093241480932314C0902314D090241447
S11301F0C114D10489F5809144149091451420913F
S11302004214309143143093451420934414909332
S113021043148093421480911E148F5F80931E14A4
S1130220E0914414F09145148081811105C09092AD
S11302301C1480921B1410C0E0914414F0914514D6
S11302400580F681E02D0680F781E02D828193817F
S113025090931C1480931B1480911B1490911C1474
S1130260C816D90610F4252C4DC0252CE091441451
S1130270F09145148081811105C090921C148092E4
S11302801B1440C0E0914414F09145140580F6819C
S1130290E02DC681D7818A819B81C816D90628F4AE
S11302A090931C1480931B142DC07E01F2E0EF0E7A
S11302B0F11CC701FBD18C899D89892B19F0CE01D2
S11302C00C96F4D18E8990912214981710F480938F
S11302D0221490E09C01220F331F220F331F220FA0
S11302E0331F820F931FB701885A9B4EBED1E091F2
S11302F07C14F0917D149E898689981708F4B6CFF2
S1130300272CB4CFE0917C14F0917D14868990E081
S1130310FC01EE0FFF1FEE0FFF1FEE0FFF1F8E0FEE
S11303209F1FFC01E85AFB4E8081823008F04EC0CA
S11303300AC0809120148F5F8093201480911F1431
S1130340811106C007C080911F14811101C02110C2
S113035070921F14809120148150809320148091F6
S11303602014811134CF80911F14813009F47FD27D
S11303700F900FBE6620F9F00FB6F8940F92D501D6
S11303801596ED91FC911697C681D781CE01029600
S11303908DD18091251481508093251480912F1440
S11303A0815080932F140F900FBE8F89988D4AD15E
S11303B0CE0148D1512C80912F148111B3CE80915C
S11303C05814823008F4ABCE52D2A7CE80911F14B9
S11303D0BFCF11241FBECFEFD1E2DEBFCDBF00E0FF
S11303E00CBF12E0A0E0B2E0EAE4FEE100E00BBFE3
S11303F002C007900D92A631B107D9F725E1A6E115
S1130400B2E001C01D92AE30B207E1F77CD00C948B
S1130410230FF6CD8F938FB78F93F89480910A159D
S11304208F5F80930A1580910B158F4F80930B1566
S113043080910C158F4F80930C1580910D158F4F63
S113044080930D158F918FBF8F910895CF93DF9374
S113045000D01F92CDB7DEB71C821B821A8219828C
S113046029813A8128173907BCF464E64B815C8101
S1130470649F9001659F300D112428533F4F3C83A6
S11304802B8329813A812F5F3F4F3A832983298126
S11304903A812817390754F30F900F900F900F905B
S11304A0DF91CF910895CF93DF931F92CDB7DEB73D
S11304B0FC018081898369818EE794E12ED784EFE2
S11304C091E0C4DFF8CFCF93DF931F92CDB7DEB7AF
S11304D0FC018081898369818EE794E11ED784EFD2
S11304E091E0B4DFF8CFCF93DF931F92CDB7DEB79F
S11304F0FC018081898369818EE794E10ED784EFC2
S113050091E0A4DFF8CFAF92BF92CF92DF92EF9247
S1130510FF920F931F93CF93DF93CDB7DEB7AA97C4
S11305200FB6F894DEBF0FBECDBF88E0E9E0F2E07D
S1130530DE01119601900D928A95E1F70F2EFAE0F3
S1130540EF2EF12CF02D0AE010E020E835E240E037
S113055050E060E0CE01099675D782E2FE0139963B
S1130560AEE7B4E101900D928A95E1F7A12CB12C8C
S1130570C12CD12CE12CF12C03E09E012F5F3F4FC5
S113058044E650E060E072E083E792E049D29E01E5
S11305902E5F3F4F44E650E063E072E083E692E072
S11305A03FD29E012D5F3F4F44E650E066E072E08B
S11305B083E592E035D23ED380E090E0AA960FB670
S11305C0F894DEBF0FBECDBFDF91CF911F910F9185
S11305D0FF90EF90DF90CF90BF90AF900895CF93AE
S11305E0DF93EC0104D48091160290911702892BB9
S11305F031F48BE192E090931702809316022091DC
S1130600180230911902CE01820F931F8F3F41E1EE
S1130610940770F42817390770F4C0911602D0912A
S11306201702C20FD31F909319028093180205C0BA
S1130630C0E0D0E002C0C0E0D0E0DFD3CE01DF9163
S1130640CF9108950895FC010396928381832FEF3F
S11306503FEF348323839683858390878783108237
S11306600895FC01118610860895CF93DF939C01B1
S1130670FB01DC011196CD91DC911297D383C283E7
S11306808C819D81958384838C819D81DC0113966B
S11306907C936E9312977D836C8331872087F90155
S11306A080818F5F8083DF91CF910895CF93DF9313
S11306B0FC01A085B185C281D381848195819D830C
S11306C08C83C481D581828193819B838A83119693
S11306D0CD91DC911297CE17DF0731F48C819D8187
S11306E012969C938E931197118610868C9181504B
S11306F08C93DF91CF91089531E1FC0130833197E0
S113070022E220833197A3E3A0833197608331975A
S113071070833197108231971082319760E860833B
S1130720319710823197108231971082319762E0AD
S11307306083319763E06083319764E0608331972D
S113074065E06083319766E06083319767E060839A
S1130750319768E06083319769E06083319760E1A5
S1130760608331973083319732E13083319733E1BD
S11307703083319734E13083319735E130833197D9
S113078036E13083319737E13083319738E1308374
S1130790319739E13083319730E23083319731E258
S11307A0308331972083319723E22083319740832C
S11307B031975083319726E22083319727E22083B3
S11307C0319728E22083319729E22083319720E36F
S11307D02083319721E320838997089588EC90E062
S11307E09093A1148093A0149093A3148093A214C3
S11307F084E08093890081EE809388008BE080936D
S11308008100EFE6F0E0808182608083A0917C1417
S1130810B0917D14CD91CDBFDD91DEBFFF91EF91FD
S1130820DF91CF91BF91AF919F918F917F916F9104
S11308305F914F913F912F911F910F91FF90EF90F6
S1130840DF90CF90BF90AF909F908F907F906F90EC
S11308505F904F903F902F901F900F900CBE0F9081
S11308600BBE0F900FBE0F90089581E008950F9274
S11308700FB6F8940F920BB60F920CB60F921F920C
S113088011242F923F924F925F926F927F928F9298
S11308909F92AF92BF92CF92DF92EF92FF920F930B
S11308A01F932F933F934F935F936F937F938F93F4
S11308B09F93AF93BF93CF93DF93EF93FF93A09155
S11308C07C14B0917D140DB60D920EB60D92B8D471
S11308D0A0917C14B0917D14CD91CDBFDD91DEBF8C
S11308E0FF91EF91DF91CF91BF91AF919F918F9144
S11308F07F916F915F914F913F912F911F910F9134
S1130900FF90EF90DF90CF90BF90AF909F908F902B
S11309107F906F905F904F903F902F901F900F901B
S11309200CBE0F900BBE0F900FBE0F9008950F9248
S11309300FB6F8940F920BB60F920CB60F921F924B
S113094011242F923F924F925F926F927F928F92D7
S11309509F92AF92BF92CF92DF92EF92FF920F934A
S11309601F932F933F934F935F936F937F938F9333
S11309709F93AF93BF93CF93DF93EF93FF93A09194
S11309807C14B0917D140DB60D920EB60D9213BE6B
S11309908091A2149091A31401979093A31480932F
S11309A0A214892B49F436DD8091A0149091A114EE
S11309B09093A3148093A2146DD3811141D4A09178
S11309C07C14B0917D14CD91CDBFDD91DEBFFF913C
S11309D0EF91DF91CF91BF91AF919F918F917F91D3
S11309E06F915F914F913F912F911F910F91FF90C4
S11309F0EF90DF90CF90BF90AF909F908F907F90BB
S1130A006F905F904F903F902F901F900F900CBE6F
S1130A100F900BBE0F900FBE0F90089588DF1895AE
S1130A204F925F926F927F928F929F92AF92BF92FA
S1130A30CF92DF92EF92FF920F931F93CF93DF93A6
S1130A404C01EB015A012901C114D10431F4CA014A
S1130A50C6DD6C01892B09F4DBC088E290E0BFDDC0
S1130A603C010097B9F0FC01D08EC78AA50165EA64
S1130A7070E0C6010E941C0FF1E0AF1AB108F30147
S1130A808789908DA80EB91E8881818F88818111F4
S1130A9004C013C0C601D6DDBBC0D3015A96FE0103
S1130AA031969E01285F3F4FEF0181918D9388819C
S1130AB0882319F0E217F307B9F7F30110A2102FF6
S1130AC0043008F013E0F301168B11A312A2E30122
S1130AD02296CE01C6DDC3010C96C3DDF3017186F7
S1130AE0608684E090E0811B910995878487738AEE
S1130AF0628A13A214A215A216A217A2A201B4011B
S1130B00C501FADDF30191838083E114F10419F046
S1130B10F701718260820FB6F8940F9280912514C8
S1130B208F5F8093251480917C1490917D14892B80
S1130B3089F570927D1460927C1480912514813023
S1130B4009F037C088E594E17EDD81E694E17BDD40
S1130B508AE694E178DD83E794E175DD8FE494E13E
S1130B6072DD86E494E16FDD89E394E16CDD80E37A
S1130B7094E169DD86E294E166DD8FE494E190938B
S1130B8045148093441486E494E190934314809331
S1130B9042140FC08091211481110BC0E0917C1488
S1130BA0F0917D148689081720F070927D1460926C
S1130BB07C1480911D148F5F80931D14F30186892A
S1130BC090912214981710F48093221490E09C01C1
S1130BD0220F331F220F331F220F331F820F931F45
S1130BE0BE01885A9B4E41DD0F900FBE80912114A7
S1130BF0882351F0E0917C14F0917D14868980174C
S1130C0028F435DE81E005C081E003C081E001C045
S1130C108FEFDF91CF911F910F91FF90EF90DF90B5
S1130C20CF90BF90AF909F908F907F906F905F9088
S1130C304F900895EF92FF920F931F93CF93DF93FA
S1130C4084E690E0CCDC8C01892B09F4C9C088E2ED
S1130C5090E0C5DCEC01892BB1F0188F0F8B44E6D2
S1130C6050E065EA70E0C8010E941C0F0F89188DDE
S1130C700D591F4F89E4898FE2E1F2E0DE015A96B3
S1130C8029E132E003C0C801DDDCAAC091919D9343
S1130C90992319F0E217F307C9F718A21E8A19A2BB
S1130CA01AA27E0182E0E80EF11CC701DADCCE0153
S1130CB00C96D7DCD987C88784E090E09D878C8721
S1130CC0DB8BCA8B1BA21CA21DA21EA21FA240E08A
S1130CD050E062E870E0C8010FDD998388830FB6A5
S1130CE0F8940F92809125148F5F8093251480913E
S1130CF07C1490917D14892B89F5D0937D14C09335
S1130D007C1480912514813009F037C088E594E182
S1130D109ADC81E694E197DC8AE694E194DC83E74B
S1130D2094E191DC8FE494E18EDC86E494E18BDC45
S1130D3089E394E188DC80E394E185DC86E294E154
S1130D4082DC8FE494E1909345148093441486E408
S1130D5094E190934314809342140FC08091211422
S1130D6081110BC0E0917C14F0917D14868981116E
S1130D7004C0D0937D14C0937C1480911D148F5FA4
S1130D8080931D142E8980912214821710F42093CD
S1130D90221430E0C901880F991F880F991F880F0A
S1130DA0991F820F931FB701885A9B4E5EDC0F90E8
S1130DB00FBE80912114882321F080917C1490919E
S1130DC07D14F8948FEF9FEF90931C1480931B1461
S1130DD081E0809321141092241410922314FEDCD9
S1130DE0DF91CF911F910F91FF90EF900895809123
S1130DF01A148F5F80931A1408959F92AF92BF9232
S1130E00CF92DF92EF92FF920F931F93CF93DF93D2
S1130E100FB6F8940F9280911A14815080931A148B
S1130E2080911A14811121C180912514811130C03F
S1130E301FC1D7011596ED91FC911697C681D781F4
S1130E40CE010C9633DC8E010E5F1F4FC8012EDCE1
S1130E502E8980912214821710F42093221430E0FA
S1130E60C901880F991F880F991F880F991F820F36
S1130E70931FB801885A9B4EF8DBE0917C14F091E3
S1130E807D149E898689981758F0D0921F1408C043
S1130E900F2EF9E3EF2EF4E1FF2EF02DDD24D39491
S1130EA0F70180818111C5CF80912014882309F432
S1130EB0D5C080912014882309F4D0C0912CAA2491
S1130EC0A394CC24CA94DC2C80911A148111ACC054
S1130ED08091231490912414019690932414809368
S1130EE02314E0902314F0902414E114F10489F500
S1130EF080914414909145142091421430914314EC
S1130F0030934514209344149093431480934214D3
S1130F1080911E148F5F80931E14E0914414F0910D
S1130F2045148081811105C0D0921C14C0921B14F9
S1130F3010C0E0914414F09145140580F681E02D31
S1130F400680F781E02D8281938190931C14809315
S1130F501B1480911B1490911C14E816F90610F4CC
S1130F60B92C4CC0B92CE0914414F0914514808103
S1130F70811105C0D0921C14C0921B143FC0E09193
S1130F804414F09145140580F681E02DC681D78183
S1130F908A819B81E816F90628F490931C148093A7
S1130FA01B142CC08E010E5F1F4FC8017FDB8C8980
S1130FB09D89892B19F0CE010C9678DB2E898091BE
S1130FC02214821710F42093221430E0C901880FF0
S1130FD0991F880F991F880F991F820F931FB801BB
S1130FE0885A9B4E42DBE0917C14F0917D149E89DB
S1130FF08689981708F4B7CFBA2CB5CFE0917C1442
S1131000F0917D14868990E0FC01EE0FFF1FEE0F36
S1131010FF1FEE0FFF1F8E0F9F1FFC01E85AFB4EB0
S11310208081823040F50AC0809120148F5F8093C4
S1131030201480911F14811106C007C080911F14D1
S1131040811101C0B110A0921F148091201481500D
S11310508093201480912014811136CF80911F1425
S1131060813029F404DC81E003C080E001C080E029
S11310700F900FBE03C080911F14E5CFDF91CF9175
S11310801F910F91FF90EF90DF90CF90BF90AF90A2
S11310909F900895CF92DF92EF92FF920F931F9348
S11310A0CF93DF9380911A148111B4C080912314DB
S11310B09091241401969093241480932314E09027
S11310C02314F0902414E114F10499F5809144144C
S11310D09091451420914214309143143093451457
S11310E020934414909343148093421480911E14CB
S11310F08F5F80931E14E0914414F0914514808115
S1131100811107C08FEF9FEF90931C1480931B14E1
S113111010C0E0914414F09145140580F681E02D4F
S11311200680F781E02D8281938190931C14809333
S11311301B1480911B1490911C14E816F90610F4EA
S1131140D12C50C0D12CCC24C394E0914414F09100
S113115045149081911107C08FEF9FEF90931C1459
S113116080931B143FC0E0914414F0914514058012
S1131170F681E02DC681D7812A813B81E216F306F0
S113118028F430931C1420931B142CC08E010E5F82
S11311901F4FC8018BDA8C899D89892B19F0CE01E8
S11311A00C9684DA2E8980912214821710F42093ED
S11311B0221430E0C901880F991F880F991F880FE6
S11311C0991F820F931FB801885A9B4E4EDAE09103
S11311D07C14F0917D149E898689981708F4B5CF04
S11311E0DC2CB3CFE0917C14F0917D14868990E0DF
S11311F0FC01EE0FFF1FEE0FFF1FEE0FFF1F8E0F00
S11312009F1FFC01E85AFB4E8081823048F0DD24A8
S1131210D39406C0809120148F5F80932014D12C26
S113122080911F14882311F0DD24D3948D2DDF9138
S1131230CF911F910F91FF90EF90DF90CF90089581
S113124080911A14882321F081E080931F1408955B
S113125010921F148091221490E0FC01EE0FFF1FE6
S1131260EE0FFF1FEE0FFF1F8E0F9F1FFC01E85AAA
S1131270FB4E8081811117C080912214815080938C
S113128022148091221490E0FC01EE0FFF1FEE0F58
S1131290FF1FEE0FFF1F8E0F9F1FFC01E85AFB4E2E
S11312A08081882349F38091221490E09C01220FCD
S11312B0331F220F331F220F331F280F391FD90169
S11312C0A85ABB4E1196ED91FC9112970280F381BE
S11312D0E02D1296FC93EE931197255A3B4EE2179C
S11312E0F30729F422813381FD0132832183FC0138
S11312F0EE0FFF1FEE0FFF1FEE0FFF1F8E0F9F1F3E
S1131300FC01E85AFB4E0180F281E02D8681978131
S113131090937D1480937C140895CF93DF93DC0124
S11313200FB6F8940F921D962D913C911E970F9035
S11313300FBE57968D919C91589728173907F1F055
S1131340FD013D96C281D381688382819381019698
S113135093838283208531858217930721F48681C4
S11313609781938382830FB6F8940F928081918141
S11313700196918380830F900FBE37C02FEF8FE8C3
S113138091E0215080409040E1F700C000000FB68A
S1131390F8940F921D962D913C911E970F900FBEBD
S11313A057968D919C9158972817390709F444C092
S11313B0FD013D96C281D381688382819381019628
S11313C093838283208531858217930721F4868154
S11313D09781938382830FB6F8940F9280819181D1
S11313E00196918380830F900FBE8C9190E088309A
S11313F0910520F5FC018827EE58FF4F8F4F14C547
S1131400E1ECF0E080818062808381E018C0E9EC47
S1131410F0E080818062808381E011C0E1EDF0E042
S113142080818062808381E00AC0E1E3F1E0808111
S11314308062808381E003C080E001C081E0DF91AD
S1131440CF9108957F928F929F92AF92BF92CF9245
S1131450DF92EF92FF920F931F93CF93DF93CDB759
S1131460DEB7A2970FB6F894DEBF0FBECDBF6C01F6
S1131470762E49015A01C701B2D80097A9F0FE019E
S113148032960FB6F8940F9211821082938382835E
S113149095838483978386838E0D9F1D9187808790
S11314A0F386E2860F900FBEC80199D80097A9F081
S11314B0FE013E960FB6F8940F9211821082938328
S11314C082839583848397838683800F911F91877A
S11314D08087138702870F900FBEC80180D89B8F27
S11314E08A8F79821D8F0C8F1E8E8F8E98A2A9A24F
S11314F0BAA20FB6F8940F92898190E088309105D2
S113150008F0B1C1FC018827E658FF4F8F4F8CC407
S1131510D501C401975FA24CBF4FBC01CD01660F3A
S1131520771F881F991F660F771F881F991F9501C2
S11315308401000F111F221F331F000F111F221FD0
S1131540331FA9019801220F331F441F551F4AD48A
S1131550215031093093C5002093C40082E0809368
S1131560C00088E98093C1008EE08093C2007BC1F3
S113157004EC10E0F801118210826A9A80EC8093E6
S1131580C20088E98093C100D501C40180589B47FB
S1131590A14EBF4F880F991FAA1FBB1F880F991F09
S11315A0AA1FBB1FBC01CD01660F771F881F991F9F
S11315B0880C991CAA1CBB1C880C991CAA1CBB1C5B
S11315C0A5019401220F331F441F551F220F331FFF
S11315D0441F551F07D421503109F801318320835A
S11315E042C1D501C401975FA24CBF4FBC01CD01DC
S11315F0660F771F881F991F660F771F881F991F13
S113160095018401000F111F221F331F000F111FAA
S1131610221F331FA9019801220F331F441F551F96
S1131620E1D3215031093093CD002093CC0082E0E6
S11316308093C80088E98093C9008EE08093CA0033
S113164012C10CEC10E0F80111821082559A80EC62
S11316508093CA0088E98093C900D501C4018058E9
S11316609B47A14EBF4F880F991FAA1FBB1F880F0E
S1131670991FAA1FBB1FBC01CD01660F771F881FCE
S1131680991F880C991CAA1CBB1C880C991CAA1CA9
S1131690BB1CA5019401220F331F441F551F220FA9
S11316A0331F441F551F9ED321503109F801318344
S11316B02083D9C0D501C401975FA24CBF4FBC01A0
S11316C0CD01660F771F881F991F660F771F881F2C
S11316D0991F95018401000F111F221F331F000F52
S11316E0111F221F331FA9019801220F331F441F0A
S11316F0551F78D3215031093093D5002093D4005D
S113170082E08093D00088E98093D1008EE08093BA
S1131710D200A9C004ED10E0F80111821082E1E0CA
S1131720F1E080818460808380EC8093D20088E93A
S11317308093D100D501C40180589B47A14EBF4F6F
S1131740880F991FAA1FBB1F880F991FAA1FBB1FB1
S1131750BC01CD01660F771F881F991F880C991C47
S1131760AA1CBB1C880C991CAA1CBB1CA5019401B7
S1131770220F331F441F551F220F331F441F551FB1
S113178031D321503109F801318320836CC0D50154
S1131790C401975FA24CBF4FBC01CD01660F771FF8
S11317A0881F991F660F771F881F991F9501840151
S11317B0000F111F221F331F000F111F221F331F81
S11317C0A9019801220F331F441F551F0BD3215029
S11317D03109309335012093340182E08093300144
S11317E088E9809331018EE0809332013CC004E3A8
S11317F011E0F80111821082E4E0F1E0808184605C
S1131800808380EC8093320188E980933101D50193
S1131810C40180589B47A14EBF4F880F991FAA1F30
S1131820BB1F880F991FAA1FBB1FBC01CD01660FE8
S1131830771F881F991F880C991CAA1CBB1C880C35
S1131840991CAA1CBB1CA5019401220F331F441F21
S1131850551F220F331F441F551FC4D22150310975
S1131860F801318320830F900FBE82E2FE0131968E
S1131870D60101900D928A95E1F7C601A2960FB6A2
S1131880F894DEBF0FBECDBFDF91CF911F910F91B2
S1131890FF90EF90DF90CF90BF90AF909F908F908C
S11318A07F9008951F920F920FB60F9211240BB6DA
S11318B00F922F933F934F938F939F93AF93BF9325
S11318C0EF93FF938091C0008C7171F08091C00000
S11318D088230CF036C0A6ECB0E0E0ECF0E08C918C
S11318E080818823E4F32DC04091C6000FB6F8949C
S11318F00F92EEE7F4E1218132810F900FBE8385D0
S1131900948528173907E9F0EFE7F4E1A281B38160
S11319104C938281938101969383828320853185C0
S11319208217930721F486819781938382830FB66C
S1131930F8940F92808191810196918380830F9016
S11319400FBEFF91EF91BF91AF919F918F914F91F6
S11319503F912F910F900BBE0F900FBE0F901F90D1
S113196018951F920F920FB60F9211240BB60F9277
S11319702F938F939F93AF93BF93EF93FF930FB6E0
S1131980F8940F9280918B1490918C140F900FBE49
S1131990892B31F4E1ECF0E080818F7D80831CC0E1
S11319A0EBE8F4E1A481B5812D91B583A48380850E
S11319B09185A817B90721F486819781958384833B
S11319C00FB6F8940F92808191810197918380835F
S11319D00F900FBE2093C600FF91EF91BF91AF917E
S11319E09F918F912F910F900BBE0F900FBE0F9070
S11319F01F9018951F920F920FB60F9211240BB6D9
S1131A000F922F933F934F938F939F93AF93BF93D3
S1131A10EF93FF938091C8008C7171F08091C8009E
S1131A2088230CF036C0AEECB0E0E8ECF0E08C912A
S1131A3080818823E4F32DC04091CE000FB6F89442
S1131A400F92E8EEF4E1218132810F900FBE83857D
S1131A50948528173907E9F0E9EEF4E1A281B3810E
S1131A604C9382819381019693838283208531856F
S1131A708217930721F486819781938382830FB61B
S1131A80F8940F92808191810196918380830F90C5
S1131A900FBEFF91EF91BF91AF919F918F914F91A5
S1131AA03F912F910F900BBE0F900FBE0F901F9080
S1131AB018951F920F920FB60F9211240BB60F9226
S1131AC02F938F939F93AF93BF93EF93FF930FB68F
S1131AD0F8940F928091F5149091F6140F900FBE24
S1131AE0892B31F4E9ECF0E080818F7D80831CC088
S1131AF0E5EFF4E1A481B5812D91B583A4838085BC
S1131B009185A817B90721F48681978195838483E9
S1131B100FB6F8940F92808191810197918380830D
S1131B200F900FBE2093CE00FF91EF91BF91AF9124
S1131B309F918F912F910F900BBE0F900FBE0F901E
S1131B401F9018951F920F920FB60F9211240BB687
S1131B500F922F933F934F938F939F93AF93BF9382
S1131B60EF93FF938091D0008C7171F08091D0003D
S1131B7088230CF036C0A6EDB0E0E0EDF0E08C91E7
S1131B8080818823E4F32DC04091D6000FB6F894E9
S1131B900F92E4EAF4E1218132810F900FBE838534
S1131BA0948528173907E9F0E5EAF4E1A281B381C5
S1131BB04C9382819381019693838283208531851E
S1131BC08217930721F486819781938382830FB6CA
S1131BD0F8940F92808191810196918380830F9074
S1131BE00FBEFF91EF91BF91AF919F918F914F9154
S1131BF03F912F910F900BBE0F900FBE0F901F902F
S1131C0018951F920F920FB60F9211240BB60F92D4
S1131C102F938F939F93AF93BF93EF93FF930FB63D
S1131C20F8940F928091B1149091B2140F900FBE5A
S1131C30892B31F4E1EDF0E080818F7D80831CC03D
S1131C40E1EBF4E1A481B5812D91B583A483808572
S1131C509185A817B90721F4868197819583848398
S1131C600FB6F8940F9280819181019791838083BC
S1131C700F900FBE2093D600FF91EF91BF91AF91CB
S1131C809F918F912F910F900BBE0F900FBE0F90CD
S1131C901F9018951F920F920FB60F9211240BB636
S1131CA00F922F933F934F938F939F93AF93BF9331
S1131CB0EF93FF93809130018C7171F0809130012A
S1131CC088230CF036C0A6E3B1E0E0E3F1E08C91A8
S1131CD080818823E4F32DC0409136010FB6F89437
S1131CE00F92E6ECF4E1218132810F900FBE8385DF
S1131CF0948528173907E9F0E7ECF4E1A281B38170
S1131D004C938281938101969383828320853185CC
S1131D108217930721F486819781938382830FB678
S1131D20F8940F92808191810196918380830F9022
S1131D300FBEFF91EF91BF91AF919F918F914F9102
S1131D403F912F910F900BBE0F900FBE0F901F90DD
S1131D5018951F920F920FB60F9211240BB60F9283
S1131D602F938F939F93AF93BF93EF93FF930FB6EC
S1131D70F8940F928091D3149091D4140F900FBEC5
S1131D80892B31F4E1E3F1E080818F7D80831CC0F5
S1131D90E3EDF4E1A481B5812D91B583A48380851D
S1131DA09185A817B90721F4868197819583848347
S1131DB00FB6F8940F92808191810197918380836B
S1131DC00F900FBE20933601FF91EF91BF91AF9119
S1131DD09F918F912F910F900BBE0F900FBE0F907C
S1131DE01F901895A1E21A2EAA1BBB1BFD010DC062
S1131DF0AA1FBB1FEE1FFF1FA217B307E407F507B7
S1131E0020F0A21BB30BE40BF50B661F771F881F92
S1131E10991F1A9469F760957095809590959B0128
S1131E20AC01BD01CF010895EE0FFF1F881F8BBFCA
S1131E300790F691E02D1994DC0101C06D93415097
S10D1E405040E0F70895F894FFCF36
S1131E4A573100573200573300313233343536377D
S1091E5A0049444C450060
S9030000FC
