S00C0000756E6F782E737265634E
S11300000C9434000C9451000C9451000C94510045
S11300100C9451000C9451000C9451000C94510018
S11300200C9451000C9451000C9451000C9428032E
S11300300C9451000C9451000C9451000C945100F8
S11300400C9451000C9451000C9441090C947C09BB
S11300500C9451000C9451000C9451000C945100D8
S11300600C9451000C94510011241FBECFEFD8E022
S1130070DEBFCDBF11E0A0E0B1E0E2E0F4E102C0F8
S113008005900D92A631B107D9F725E0A6E1B1E0BC
S113009001C01D92AB37B207E1F70E94BC000C947B
S11300A0FF090C940000CF93DF9300D000D0CDB7AC
S11300B0DEB71C821B821A82198229813A81281791
S11300C03907BCF464E64B815C81649F9001659FB1
S11300D0300D112428533F4F3C832B8329813A81CF
S11300E02F5F3F4F3A83298329813A8128173907A3
S11300F054F30F900F900F900F90DF91CF910895CC
S1130100CF93DF931F92CDB7DEB7FC018081898343
S1130110698140E050E080E090E00E94240984EF8F
S113012091E00E945300F4CFCF93DF931F92CDB799
S1130130DEB7FC0180818983698140E050E080E082
S113014090E00E94240984EF91E00E945300F4CFD0
S1130150CF93DF931F92CDB7DEB7FC0180818983F3
S1130160698140E050E080E090E00E94240984EF3F
S113017091E00E945300F4CFEF92FF920F93CF933C
S1130180DF93CDB7DEB728970FB6F894DEBF0FBE66
S1130190CDBF88E0E9E0F1E0DE01119601900D9217
S11301A08A95E1F742E360E07BE480E090E00E941E
S11301B0D808E12CF12C03E09E012F5F3F4F45E569
S11301C050E060E071E088EA90E00E941B059E0127
S11301D02E5F3F4F45E550E063E071E084E990E035
S11301E00E941B059E012D5F3F4F45E550E066E0F0
S11301F071E080E890E00E941B050E94080680E000
S113020090E028960FB6F894DEBF0FBECDBFDF9105
S1130210CF910F91FF90EF900895CF93DF93EC016E
S11302200E94270640911601509117019E01240F48
S1130230351F283E83E0380758F44217530758F413
S1130240EA01C45EDE4F309317012093160105C006
S1130250C0E0D0E002C0C0E0D0E00E943206CE018F
S1130260DF91CF9108950895FC01039692838183D1
S11302702FEF3FEF3483238396838583908787838F
S113028010820895FC01118610860895CF93DF93A0
S1130290FC01DB0121813281E9018A819B81139672
S11302A09C938E9312978181928115969C938E9341
S11302B014978A819B81EC017D836C83E9017B83A4
S11302C06A83728361831996FC93EE9318978081F5
S11302D08F5F8083DF91CF910895CF93DF93EB01FC
S11302E0488159814F3F2FEF520731F4DC011796B3
S11302F0ED91FC91189717C0FC013396DC0115961B
S11303002D913C911697D9012D913C914217530799
S113031050F00280F381E02DA281B3812D913C91B4
S113032042175307B0F7A281B381BB83AA83159602
S1130330DC93CE931497FD83EC83D383C283998794
S11303408887FC0120812F5F2083DF91CF9108955E
S1130350FC01A281B3818481958115969C938E932F
S11303601497A481B5818281938113969C938E9373
S11303701297A085B18511968D919C9112978E1735
S11303809F0731F48481958112969C938E931197E3
S1130390118610868C9181508C93089531E1FC0173
S11303A03083319722E220833197A3E3A0833197EE
S11303B060833197708331971082319760E860834E
S11303C031971082319762E06083319763E06083F4
S11303D0319764E06083319765E06083319766E02C
S11303E06083319767E06083319768E06083319779
S11303F069E06083319760E160833197308331979E
S113040032E13083319733E13083319734E1308303
S1130410319735E13083319736E13083319737E1D5
S11304203083319738E13083319739E13083319724
S113043030E23083319731E2308331972083319732
S113044023E220833197408331975083319726E20A
S11304502083319727E22083319728E22083319744
S113046029E22083319720E32083319721E32083FD
S1130470869708951092890089EF809388008BE015
S113048080938100EFE6F0E0808182608083A09118
S11304907505B0917605CD91CDBFDD91DEBFFF919D
S11304A0EF91DF91CF91BF91AF919F918F917F9108
S11304B06F915F914F913F912F911F910F91FF90F9
S11304C0EF90DF90CF90BF90AF909F908F907F90F0
S11304D06F905F904F903F902F901F900F900FBEA2
S11304E00F90089581E008950F920FB6F8940F923B
S11304F01F9211242F923F924F925F926F927F929C
S11305008F929F92AF92BF92CF92DF92EF92FF921F
S11305100F931F932F933F934F935F936F937F9307
S11305208F939F93AF93BF93CF93DF93EF93FF93F7
S1130530A0917505B09176050DB60D920EB60D928B
S11305400E94AB07A0917505B0917605CD91CDBF02
S1130550DD91DEBFFF91EF91DF91CF91BF91AF911C
S11305609F918F917F916F915F914F913F912F91C7
S11305701F910F91FF90EF90DF90CF90BF90AF90BD
S11305809F908F907F906F905F904F903F902F90AF
S11305901F900F900FBE0F9008950F920FB6F8940E
S11305A00F921F9211242F923F924F925F926F925B
S11305B07F928F929F92AF92BF92CF92DF92EF92EF
S11305C0FF920F931F932F933F934F935F936F93D8
S11305D07F938F939F93AF93BF93CF93DF93EF93C7
S11305E0FF93A0917505B09176050DB60D920EB6E8
S11305F00D920E9433070E94AB07A0917505B0913C
S11306007605CD91CDBFDD91DEBFFF91EF91DF91F6
S1130610CF91BF91AF919F918F917F916F915F9196
S11306204F913F912F911F910F91FF90EF90DF9089
S1130630CF90BF90AF909F908F907F906F905F907E
S11306404F903F902F901F900F900FBE0F900895E2
S11306500E94CD021895CF93DF93EC018C8D8823F3
S1130660A9F1411117C0482F50E08C819D810E944F
S1130670E0092C8D8C819D81820F911D9D838C833B
S11306802A813B818217930708F1888199819D8390
S11306908C831CC0482F50E08E819F810E94E0090A
S11306A02C8D30E03195219531098E819F81820F07
S11306B0931F9F838E83488159818417950730F453
S11306C08A819B81280F391F3F832E838A8D8F5FF8
S11306D08A8FDF91CF910895FC01CB01A081B18174
S11306E0109799F0448D50E026813781240F351FEF
S11306F037832683628173812617370710F0B78307
S1130700A683668177810E94E0090895CF93DF93E1
S1130710EC010FB6F8940F928E8D815012F48E8FE7
S11307200CC08FEF8E8F8989882339F0CE014196D2
S11307300E94490881110E94D4080F900FBE0FB681
S1130740F8940F928D8D815012F48D8F0CC08FEF21
S11307508D8F8885882339F0CE0108960E94490838
S113076081110E94D4080F900FBEDF91CF9108959C
S1130770CF92DF92EF92FF920F931F93CF93DF9369
S1130780D82EC62E8823D9F18FE190E00E940D0166
S1130790EC010097B9F1EC2CF12CDE9C8001DF9C7C
S11307A0100D1124C80101960E940D0199838883BC
S11307B00097F9F0AC01400F511F5B834A831A8EF6
S11307C09D838C830E191F099C01200F311F3F83C9
S11307D02E83DB8ECC8E8FEF8D8F8E8FCE0108967D
S11307E00E943401CE0141960E9434018C2F9D2F2A
S11307F00BC0CE010E94330180E090E005C080E090
S113080090E002C080E090E0DF91CF911F910F91C2
S1130810FF90EF90DF90CF9008957F928F929F92F8
S1130820AF92BF92CF92DF92EF92FF920F931F93FA
S1130830CF93DF9300D000D01F92CDB7DEB78C01E9
S11308406B015D834C83922E0E942706CE01019694
S11308500E9494080FB6F8940F92F801858D8F5F6B
S1130860858F868D8F5F868F0F900FBE772473944C
S11308707801F8E0EF0EF11CB12CAA24A39488248B
S11308808A940FB6F8940F92F801928D0F900FBED0
S1130890F801838D98132AC06C817D8161157105DF
S11308A029F1C7010E9408080FB6F8940F92C801F5
S11308B00E9486030E943206811102C00E947402C3
S11308C0F801928D838D981301C07B2C0E9427061A
S11308D00FB6F8940F92F801858D8F5F858F868D02
S11308E08F5F868F0F900FBE0F900FBE7720C1F0E1
S11308F00FB6F8940F92F801928D838D981758F4DF
S1130900492DB601C8010E942B03F801868D8F5F23
S1130910868F7A2C01C07B2C0F900FBE711010C0F3
S1130920EC81FD81EF2B59F0BE016C5F7F4FCE014E
S113093001960E949F08811102C0782CA2CF712CCD
S1130940C8010E9486030E943206872D0F900F90E3
S11309500F900F900F90DF91CF911F910F91FF9007
S1130960EF90DF90CF90BF90AF909F908F907F904B
S113097008951F93CF93DF93EC01142F9A8D8B8DE1
S11309809817C8F4422FCE010E942B038E8D8F3FFF
S113099071F4111110C08989882361F0CE01419648
S11309A00E94490811E0811106C010E004C08F5F65
S11309B08E8F01C010E0812FDF91CF911F91089598
S11309C00F931F93CF93DF93EC018A018A8D8823C1
S11309D0F1F0CE010E946C038A8D81508A8F8D8D37
S11309E08F3F89F4F8018081811113C088858823A1
S11309F091F0CE0108960E944908882371F081E0A5
S1130A00F80180830BC08F5F8D8F81E007C080E089
S1130A1005C081E003C081E001C081E0DF91CF9196
S1130A201F910F910895CDE2D5E088818230E8F3DB
S1130A300E947402FACF6F927F928F929F92AF922C
S1130A40BF92CF92DF92EF92FF920F931F93CF93B7
S1130A50DF934C015B016A01390181E290E00E945D
S1130A600D01EC01009709F4C3C0C6010E940D01F9
S1130A70988F8F8B009721F4CE010E943301B8C068
S1130A80A60165EA70E00E94E90948E050E0B5017A
S1130A90CE0149960E94F00918A2102F083008F0E0
S1130AA017E01E8B5E0182E0A80EB11CC5010E94F6
S1130AB04201CE010C960E944201D987C88788E082
S1130AC090E0811B91099D878C87DB8BCA8BE1E0C9
S1130AD0CE1AD1088F89988DA301B4018C0D9D1D68
S1130AE00E94CE01998388830FB6F8940F92809167
S1130AF00D058F5F80930D0580910D05813091F573
S1130B00D0937605C09375050F2EFDE2CF2EF5E048
S1130B10DF2EF02D0F2EF5E78F2EF5E09F2EF02D12
S1130B20C6010E943401F9E0CF0ED11CC814D904C7
S1130B30B9F784E295E00E9434018BE195E00E94CC
S1130B4034018EE095E00E94340184E295E09093B4
S1130B501A05809319058BE195E09093180580930D
S1130B6017050FC08091080581110BC0E091750530
S1130B70F09176058689081720F0D0937605C09306
S1130B8075058E8990910A05981710F480930A05CB
S1130B9090910905981710F48093090590E09C0141
S1130BA0220F331F220F331F220F331F820F931F75
S1130BB0B501835D9A4F0E9446010F900FBEE11468
S1130BC0F10419F0F701D183C083809108058823CB
S1130BD059F0E0917505F09176058689801730F417
S1130BE00E94740281E005C081E003C081E001C07D
S1130BF08FEFDF91CF911F910F91FF90EF90DF90D6
S1130C00CF90BF90AF909F908F907F906F900895FA
S1130C10EF92FF920F93E12CF12C00E020E030E002
S1130C2045E550E061E171E083E195E00E941B0538
S1130C30813049F4F8948093080510920C051092C1
S1130C400B050E943A020F91FF90EF9008950FB6A2
S1130C50F8940F92809107058F5F809307050F909A
S1130C600FBE0895AF92BF92CF92DF92EF92FF92A0
S1130C700F931F93CF93DF930FB6F8940F92809145
S1130C800705815080930705809107058111D9C01C
S1130C9080910D05882309F4D6C0B12C0F2EFEE0F7
S1130CA0EF2EF5E0FF2EF02D0F2EF3E1CF2EF5E021
S1130CB0DF2EF02DAA24A39429C0CE010C960E9405
S1130CC0A8018E010E5F1F4FC8010E94A8018E89E2
S1130CD090910905981710F48093090590E09C0100
S1130CE0220F331F220F331F220F331F820F931F34
S1130CF0B801835D9A4F0E944601E0917505F09119
S1130D0076059E898689981708F0BA2CD7018C91AC
S1130D10882339F0D601ED91FC91C681D7812097C3
S1130D2061F680910605882309F47EC0809106054A
S1130D30882309F480C080910705811166C08091E1
S1130D400B0590910C05019690930C0580930B056F
S1130D5080910B0590910C05892B09F043C080917B
S1130D60190590911A0520911705309118053093B3
S1130D701A052093190590931805809317058091FF
S1130D8004058F5F809304052DC080910B0590911D
S1130D900C052A813B8182179307E0F18E010E5FD7
S1130DA01F4FC8010E94A8018C899D89892B21F0BD
S1130DB0CE010C960E94A8018E899091090598177E
S1130DC010F48093090590E09C01220F331F220F39
S1130DD0331F220F331F820F931FB801835D9A4F75
S1130DE00E944601E0911905F0911A05808188233B
S1130DF089F0E0911905F0911A050580F681E02D3E
S1130E00C681D781209709F605C0809106058F5FBA
S1130E108093060580910605815080930605809194
S1130E200605811188CF07C0B1E0BB1621F080917F
S1130E300505813051F4109205050E94740281E089
S1130E4005C080E003C080E001C080E00F900FBEC9
S1130E50DF91CF911F910F91FF90EF90DF90CF9092
S1130E60BF90AF9008950F931F93CF93DF9380911A
S1130E700705811166C080910B0590910C050196C0
S1130E8090930C0580930B0580910B0590910C05B4
S1130E90892B09F043C08091190590911A0520917E
S1130EA017053091180530931A052093190590936E
S1130EB0180580931705809104058F5F80930405BE
S1130EC02DC080910B0590910C052A813B818217DE
S1130ED09307E0F18E010E5F1F4FC8010E94A80125
S1130EE08C899D89892B21F0CE010C960E94A80142
S1130EF08E8990910905981710F48093090590E064
S1130F009C01220F331F220F331F220F331F820F26
S1130F10931FB801835D9A4F0E944601E091190521
S1130F20F0911A058081882389F0E0911905F091E8
S1130F301A050580F681E02DC681D781209709F630
S1130F4005C0809106058F5F80930605DF91CF91E0
S1130F501F910F91089580910705811113C080910D
S1130F60090590E0FC01EE0FFF1FEE0FFF1FEE0FCF
S1130F70FF1F8E0F9F1FFC01E35DFA4F80818823C2
S1130F8029F01BC081E0809305050895809109052F
S1130F908150809309058091090590E0FC01EE0FD2
S1130FA0FF1FEE0FFF1FEE0FFF1F8E0F9F1FFC0191
S1130FB0E35DFA4F8081882349F3E0910905F0E06D
S1130FC0CF01880F991F880F991F880F991FE80F69
S1130FD0F91FE35DFA4FA181B28112960D90BC9185
S1130FE0A02DB283A183CF010396A817B90731F4CA
S1130FF012968D919C911397928381830180F28143
S1131000E02D8681978190937605809375050895E8
S1131010CF93DF93EB016091750570917605645F62
S11310207F4F0E946D01809175059091760502961F
S11310300E94A80160910B0570910C056C0F7D1F37
S1131040E0917505F09176057383628380910B05B9
S113105090910C056817790768F460917505709193
S1131060760580911705909118056E5F7F4F0E9459
S11310706D010CC06091750570917605809119051C
S113108090911A056E5F7F4F0E946D01DF91CF91A1
S113109008950F931F93CF93DF93DC012C912223A8
S11310A039F01596ED91FC911697C681D78102C04F
S11310B0C0E0D0E08E01045F1F4FC8010E94A80168
S11310C08091070581111CC00A501109C8010E94B2
S11310D0A8018E8990910905981710F48093090549
S11310E090E09C01220F331F220F331F220F331F66
S11310F0820F931FB801835D9A4F0E94460105C079
S1131100B8018EE095E00E944601E0917505F091EA
S1131110760581E02E899689291708F480E0DF910D
S1131120CF911F910F91089520910405FC01208314
S113113020910B0530910C05328321830895209171
S11311400405DC013C91321759F020910B053091D4
S11311500C0511964D915C9112972417350700F5F3
S1131160E0910B05F0910C05DC0111964D915C9119
S11311701297DB012D913C911197E41BF50BE217BB
S1131180F30780F4E0910B05F0910C054E1B5F0B07
S1131190240F351F2D933C930E94940880E00895FA
S11311A081E0089581E0089581E080930505089524
S11311B0CF92DF92EF92FF92CF936B017C01C42F09
S11311C00FB6F8940F9261E0842F0E94B8039093B5
S11311D07A058093790561E08C2F0E94B80390937F
S11311E0780580937705CC0CDD1CEE1CFF1CCC0C21
S11311F0DD1CEE1CFF1CA7019601220F331F441FA8
S1131200551F60E074E284EF90E00E94BE09DA01A9
S1131210C9010197A109B1098093C400892F9A2FAC
S1131220AB2FBB278093C50088E98093C10086E873
S11312308093C2000F900FBE80E090E0CF91FF90AA
S1131240EF90DF90CF900895CF93DF931F92CDB7A7
S1131250DEB7698320E0BE016F5F7F4F8091770521
S1131260909178050E940D04813031F4E1ECF0E0B6
S113127090819062908301C080E00F90DF91CF91C4
S113128008951F920F920FB60F9211242F933F933C
S11312904F935F936F937F938F939F93AF93BF937A
S11312A0EF93FF93CF93DF931F92CDB7DEB7809177
S11312B0C600898320E040E0BE016F5F7F4F8091CC
S11312C0790590917A050E94B90481110E947402F3
S11312D00F90DF91CF91FF91EF91BF91AF919F91CB
S11312E08F917F916F915F914F913F912F910F90CB
S11312F00FBE0F901F9018951F920F920FB60F926A
S113130011242F933F934F935F936F937F938F9306
S11313109F93AF93BF93EF93FF93CF93DF9300D04B
S1131320CDB7DEB7AE014E5F5F4FBE016F5F7F4F3B
S113133080917705909178050E94E004813021F432
S113134089818093C60005C0E1ECF0E080818F7D47
S113135080830F900F90DF91CF91FF91EF91BF9118
S1131360AF919F918F917F916F915F914F913F9139
S11313702F910F900FBE0F901F901895A1E21A2E77
S1131380AA1BBB1BFD010DC0AA1FBB1FEE1FFF1F25
S1131390A217B307E407F50720F0A21BB30BE40B75
S11313A0F50B661F771F881F991F1A9469F76095BC
S11313B07095809590959B01AC01BD01CF01089576
S11313C0FB01DC0102C001900D9241505040D8F75E
S11313D00895DC0101C06D9341505040E0F7089539
S11313E0FB01DC014150504048F001900D92002077
S11313F0C9F701C01D9241505040E0F70895F89498
S1051400FFCF18
S113140257310057320057330031323334353637CF
S10914120049444C4500B2
S9030000FC
